:10000000406E0020A14D000075BD00008D4D000028
:100010008D4D00008D4D00008D4D00000000000052
:10002000000000000000000000000000514F000030
:100030008D4D0000000000001D4F00008D4D0000A0
:1000400031510000315100003151000031510000A8
:100050003151000031510000315100003151000098
:100060003151000031510000315100003151000088
:100070003151000031510000315100003151000078
:100080003151000031510000315100003151000068
:100090003151000031510000315100003151000058
:1000A0003151000031510000315100003151000048
:1000B0003151000031510000315100003151000038
:1000C0003151000031510000315100003151000028
:1000D0003151000031510000315100003151000018
:1000E0003151000031510000315100003151000008
:1000F00031510000315100003151000031510000F8
:1001000080F0004002E000BF81F0004142001FBFCC
:100110005FEA410392EA030F7FEA226C7FEA236CD5
:100120006AD04FEA1262D2EB1363C1BFD2184140CA
:1001300048404140B8BF5B42192B88BF704710F060
:10014000004F40F4000020F07F4018BF404211F003
:10015000004F41F4000121F07F4118BF494292EA6B
:10016000030F3FD0A2F1010241FA03FC10EB0C0097
:10017000C3F1200301FA03F100F0004302D5494224
:1001800060EB4000B0F5000F13D3B0F1807F06D3D1
:1001900040084FEA310102F10102FE2A51D2B1F1C9
:1001A000004F40EBC25008BF20F0010040EA0300BE
:1001B0007047490040EB0000013A28BFB0F5000F3E
:1001C000EDD2B0FA80FCACF1080CB2EB0C0200FAF4
:1001D0000CF0AABF00EBC25052421843BCBFD04043
:1001E0001843704792F0000F81F4000106BF80F4BD
:1001F00000000132013BB5E74FEA41037FEA226C80
:1002000018BF7FEA236C21D092EA030F04D092F04A
:10021000000F08BF0846704790EA010F1CBF00207E
:10022000704712F07F4F04D1400028BF40F00040DB
:10023000704712F100723CBF00F50000704700F0FB
:10024000004343F0FE4040F4000070477FEA226222
:1002500016BF08467FEA23630146420206BF5FEAF3
:10026000412390EA010F40F4800070474FF00003F3
:1002700004E000BF10F0004348BF40425FEA000CBA
:1002800008BF704743F0964301464FF000001CE062
:1002900050EA010208BF70474FF000030AE000BFB8
:1002A00050EA010208BF704711F0004302D54042F6
:1002B00061EB41015FEA010C02BF84460146002068
:1002C00043F0B64308BFA3F18053A3F50003BCFA83
:1002D0008CF2083AA3EBC25310DB01FA02FC634430
:1002E00000FA02FCC2F12002BCF1004F20FA02F237
:1002F00043EB020008BF20F00100704702F120022A
:1003000001FA02FCC2F1200250EA4C0021FA02F28A
:1003100043EB020008BF20EADC7070474FF0FF0C8F
:100320001CEAD0521EBF1CEAD15392EA0C0F93EA8A
:100330000C0F6FD01A4480EA010C400218BF5FEA2C
:1003400041211ED04FF0006343EA501043EA51119F
:10035000A0FB01310CF00040B1F5000F3EBF490099
:1003600041EAD3715B0040EA010062F17F02FD2A9D
:100370001DD8B3F1004F40EBC25008BF20F0010080
:10038000704790F0000F0CF0004C08BF49024CEA97
:10039000502040EA51207F3AC2BFD2F1FF0340EA29
:1003A000C250704740F400004FF00003013A5DDC9A
:1003B00012F1190FDCBF00F000407047C2F10002DB
:1003C000410021FA02F1C2F1200200FA02FC5FEAC8
:1003D000310040F1000053EA4C0308BF20EADC7012
:1003E000704792F0000F00F0004C02BF400010F484
:1003F000000F013AF9D040EA0C0093F0000F01F031
:10040000004C02BF490011F4000F013BF9D041EA52
:100410000C018FE70CEAD15392EA0C0F18BF93EA54
:100420000C0F0AD030F0004C18BF31F0004CD8D17E
:1004300080EA010000F00040704790F0000F17BF05
:1004400090F0004F084691F0000F91F0004F14D04B
:1004500092EA0C0F01D142020FD193EA0C0F03D1A3
:100460004B0218BF084608D180EA010000F00040A6
:1004700040F0FE4040F40000704740F0FE4040F481
:10048000400070474FF0FF0C1CEAD0521EBF1CEA20
:10049000D15392EA0C0F93EA0C0F69D0A2EB03023E
:1004A00080EA010C49024FEA402037D04FF08053D8
:1004B00043EA111143EA10130CF000408B4238BF9D
:1004C0005B0042F17D024FF4000C8B4224BF5B1AAB
:1004D00040EA0C00B3EB510F24BFA3EB510340EAF9
:1004E0005C00B3EB910F24BFA3EB910340EA9C00A7
:1004F000B3EBD10F24BFA3EBD10340EADC001B0117
:1005000018BF5FEA1C1CE0D1FD2A3FF650AF8B42BA
:1005100040EBC25008BF20F0010070470CF0004CC7
:100520004CEA50207F32C2BFD2F1FF0340EAC250F2
:10053000704740F400004FF00003013A37E792F0B3
:10054000000F00F0004C02BF400010F4000F013A11
:10055000F9D040EA0C0093F0000F01F0004C02BF0C
:10056000490011F4000F013BF9D041EA0C0195E775
:100570000CEAD15392EA0C0F08D142027FF47DAF0E
:1005800093EA0C0F7FF470AF084676E793EA0C0FFE
:1005900004D14B023FF44CAF08466EE730F0004CFC
:1005A00018BF31F0004CCAD130F000427FF45CAF8C
:1005B00031F000437FF43CAF5FE700BF4FEA4002F9
:1005C000B2F1FE4F0FD34FF09E03B3EB12620DD981
:1005D0004FEA002343F0004310F0004F23FA02F0EB
:1005E00018BF404270474FF00000704712F1610F92
:1005F00001D1420205D110F0004008BF6FF0004069
:1006000070474FF00000704753B94AB9002908BF3E
:1006100000281CBF4FF0FF314FF0FF3000F00CB846
:10062000ADF1080C6DE904CE00F01AF8DDF804E035
:10063000DDE9022304B07047704700BF10F8012BBA
:1006400011F8013B012A28BF9A42F7D0D01A70470F
:10065000034613F8012B002AFBD1181A0138704702
:100660002DE9F04786468C460846089E1546744696
:100670001946002B40F0C2808542B2FA82F245D979
:100680004AB1C2F1200300FA02FC2EFA03F39540AE
:1006900043EA0C0C94404FEA154EA8B2BCFBFEF89E
:1006A000230C0EFB18CC08FB00F943EA0C439945D8
:1006B00028D9EB1808F1FF3704D2994502D9A8F1DF
:1006C00002072B44A3EB0903A4B2B3FBFEFC0EFB11
:1006D0001C330CFB00F044EA0344A04214D92C194B
:1006E0000CF1FF3304D2A04202D9ACF102032C4436
:1006F000241A43EA07401EB1D440002334607360DB
:10070000BDE8F0874746DDE76346F1E792BB431B50
:1007100001214FEA154EAFB2B3FBFEFC200C0EFBDD
:100720001C330CFB07F840EA0343984562D9EB18E9
:100730000CF1FF3004D2984502D9ACF102002B44F1
:10074000A3EB0803A4B2B3FBFEFC0EFB1C330CFBB3
:1007500007F744EA0344A7424ED92C190CF1FF33A2
:1007600004D2A74202D9ACF102032C44E41B43EAB1
:100770000040C0E7C2F1200320FA03F19540904009
:100780002EFA03F303434FEA154EAFB2B1FBFEFC62
:100790000EFB1C10190C0CFB07F841EA00418845C0
:1007A00004FA02F422D969180CF1FF3004D288450A
:1007B00002D9ACF102002944A1EB08019BB2B1FBC4
:1007C000FEFC0EFB1C110CFB07F743EA01439F42A2
:1007D0000ED9EB180CF1FF3104D29F4202D9ACF1D3
:1007E00002012B44DB1B41EA004192E76046E3E74C
:1007F0006146F7E76046A3E76346B7E7834206D959
:1008000016B9002108467BE7C6E900E0F9E7B3FA2C
:1008100083F78FB9834201D3724508D8BEEB020437
:1008200060EB030301209C461EB9002168E73846AF
:10083000FAE7C6E9004CF8E7C7F1200CBB4022FA02
:100840000CF41C432EFA0CF120FA0CF3B8400143CF
:100850004FEA14490EFA07F5B3FBF9F81FFA84FEC4
:1008600009FB18300B0C08FB0EFA43EA00439A45CB
:1008700002FA07F240D9E31808F1FF3004D29A4592
:1008800002D9A8F102002344A3EB0A0389B2B3FB07
:10089000F9F809FB183308FB0EFE41EA03418E45C7
:1008A0002CD9611808F1FF3304D28E4502D9A8F182
:1008B0000203214443EA0040A0FB0298A1EB0E0191
:1008C0004145CE46434602D306D14D4504D2B9EB4D
:1008D000020E68EB04030138002EA6D0B5EB0E0221
:1008E00061EB030101FA0CFC22FA07F34CEA030363
:1008F000F940C6E9003198E74046C5E74346D9E7E5
:1009000090B583B000AF6C4600233B7102237B712E
:1009100088B0EC461CF1100214D00E2022B104283D
:1009200002DD294BCCF8143000233B7002237B708E
:10093000AAB1082802DD254BCCF818300CF11C03B5
:1009400000210AE06FF00040E8E701F1080EBE4424
:100950001EF808EC03F801EB01310129F5D90D2847
:100960002EDD0E234AB10321397100217971B9714D
:100970000121F9717868CCF8100000216FF30001B3
:100980006FF341016FF382016FF3C501032060F340
:100990008811C3F30A0363F353216FF31F5100233C
:1009A0000B4803F0FBF8A54601F0BEF80AF088F901
:1009B0004FF40040002109F00BF800F00BF8FEE7BF
:1009C0006FF01B03CEE700BFD8E50000DCE50000B8
:1009D00048E500002DE9F04391B000AFBB4A032188
:1009E000BB480BF090F80AF073F901F04BFD0220C0
:1009F0000AF062F90AF0A9F80028FBD0002000F004
:100A0000ABFEB0F1FF3F0DD0032000F035FFB14841
:100A100000F070FC814658B1AF4A0321AC480BF09E
:100A200072F8FEE7AD4A0121A9480BF06CF8FEE729
:100A3000AB4801F055F833E06FF0004C63E0002361
:100A40003B7702237B77002A65D1BCF10D0F77DD60
:100A50000E2362B1032087F82C00002087F82D00B8
:100A600087F82E00012087F82F00F86A08616FF3DD
:100A700000046FF341046FF382046FF3C504032194
:100A800061F38814C3F30A0363F3532465F31F541B
:100A9000944B21468E4803F081F8C5460E2D52D066
:100AA00000200AF05AF80021442009F0BDFF8E4BC7
:100AB0001842F8D010F4804F00F0028100214C2041
:100AC00009F0B2FFC0F3090500222946854800F06D
:100AD000D7FD4FF480420021442009F06CFF2A46E4
:100AE000824907F10C0009F093FCE846002387F8DF
:100AF0002C30022387F82D3088B0694611F110029E
:100B00009AD04FF00E0C002A99D0BCF1040F96DD5C
:100B1000774B4B6193E7BCF1080F02DD07F10C0343
:100B20008B6101F11C03002007E000F1400EBE4480
:100B30001EF824EC03F801EB01300128F5D984E715
:100B40006FF01B0385E7674B1B78C52BA8D1654B5E
:100B50009B7A432BA4D1634BDB7A022BA0D107F104
:100B60002C05DFF890C1BCE80F000FC5DCF80030A1
:100B700025F8023B1B0C2B70DFF87C8157220021EB
:100B800040460DF0EAFA454607F12C0CBCE80F0090
:100B90000FC5DCF8003025F8023B1B0C2B70514BC5
:100BA000587888F80200554D2946053809F0B5FEF9
:100BB0004222294608F113000DF0C1FA4B4606E027
:100BC000991C5A1D4748405C4B4988540133072BF8
:100BD000F6DD00224849572000F040FB0022114674
:100BE000572000F067FB002000F086FE0021442023
:100BF00009F01AFF10F0800FF8D080220021442065
:100C000009F0D9FE57223E4907F11C0009F000FC0B
:100C10006D4600233B7202237B7288B06B4613F152
:100C2000100230D00E201AB1042801DD304959617C
:100C3000002139710221797142BB0D283DDD0E2161
:100C400042B10320387200207872B8720120F87225
:100C5000B86818616FF300066FF341066FF3820600
:100C60006FF3C506032363F38816C1F30A0161F32A
:100C70005326572363F31F561F4B3146144802F087
:100C80008DFFAD460CE76FF00040CCE7082802DD91
:100C900007F11C01996103F11C014FF0000C08E001
:100CA0000CF1400EBE441EF83CEC01F801EB0CF1D7
:100CB000010CBCF1010FF3D9BFE76FF01B01BFE7D7
:100CC000104A0021442009F076FEE9E6F8E500002C
:100CD00068E50000CC04002018E600000CE60000E7
:100CE000C0040020604B002000D0052428E600004E
:100CF000D8E50000B0E50000C44B0020804B002088
:100D000034E600000090052400B586461046002316
:100D100007E01EF803C08CEA000C044A12F80C002D
:100D200001338B42F5DB5DF804FB00BF1C4C002057
:100D3000F0B585B004461D46BDF8280001EB040C53
:100D4000CCF3044C214401F07F03990041EA4C2E7E
:100D500071460143090A8DF80C1000F0030646EABB
:100D60000E068DF80D60164602BB630063F07E032D
:100D70008DF80C30012778B380F40040032852D856
:100D8000294B1B681B7D03B30022394603A8FFF7DC
:100D9000BBFF024631462846FFF7B6FF00902B46C0
:100DA000324603A9384601F09FFD20E01BB9B0F59B
:100DB000004F06D038B141F040018DF80C100227E9
:100DC000D9E70127D7E70127D5E72B46324603A904
:100DD000384601F0C3FD0AE02B46324603A93846E7
:100DE00001F0E6FD104B1B681B7D022B01D005B006
:100DF000F0BD182CFBD00022394603A8FFF784FF72
:100E0000024631462846FFF77FFF0446002118209E
:100E100009F032FE8442EAD0034B1B685B6A002B68
:100E2000E5D09847E3E7FEE7DC04002008B50022A0
:100E30001146024809F0BFFD08BD00BF04000700CD
:100E400010B5044600221146084809F0B4FD0022FE
:100E500011464FF4E02009F0AEFD04B910BD4FF08B
:100E6000E0520021024809F0A6FDF7E7480007001C
:100E70001400070010B50446012802D0052C07D045
:100E800010BD41F622020021054809F0A9FDF5E751
:100E90004FF400720021024809F0A2FDF0E700BF04
:100EA0000400110038B504460A4D012200212846ED
:100EB00009F096FD22460021074809F091FD022223
:100EC0000021284609F08CFD0021044809F0ACFD02
:100ED00038BD00BF08000B0004000B0010000B0021
:100EE00008B5052802D0092808D008BD40236FF4B2
:100EF00000520021064809F0CCFDF6E74FF40153FB
:100F00006FF400520021024809F0C3FDEDE700BF75
:100F100008000B0070B505460C46164E4FF008232E
:100F20004FF0FF320021304609F0B3FD4FF060135F
:100F30004FF0FF320021304609F0ABFD052D09D0FE
:100F40000D4B4FF0FF3200214FF4E02009F0A1FDDE
:100F50004CB970BD094B4FF0FF3200214FF4E02037
:100F600009F097FDF4E7064A0021064809F023FD41
:100F7000EFE700BF48000700001C0002003C000231
:100F8000001101011400070008B5052802D0092846
:100F900008D008BD074B4FF0FF320021064809F08A
:100FA00078FDF6E7054B4FF0FF320021024809F0CB
:100FB00070FDEEE7003C000204000700001C000288
:100FC00008B54FF4C0734FF6FF720021064809F0D0
:100FD00087FD064B1B681B7A4FF6E0720021044820
:100FE00009F07EFD08BD00BF08000B00DC040020F6
:100FF0001F00110010B5012817D002281FD00123AF
:10100000FF2200211A4809F082FD1A4C4FF4000318
:101010006FF480720021204609F03BFD00237F22FF
:101020000221204609F073FD10BD0520FFF722FFC5
:101030000123FF2219460F4809F069FDF4E7032355
:10104000FF2200210A4809F062FD0A4C4FF4000318
:101050006FF480720021204609F01BFD00237F22DF
:101060000221204609F053FD0520FFF703FFDBE7CF
:1010700004001100080011002DE9F843052836D0BE
:10108000204C2546204E214FDFF88480DFF88490E5
:10109000214A0021214809F08EFC4A4600212048BF
:1010A00009F089FC424600211E4809F084FC3A46BA
:1010B00000211D4809F07FFC324600211B4809F041
:1010C0007AFC2A4600211A4809F075FC22460021C4
:1010D000184809F070FC184A0021184809F06BFC08
:1010E000174A0021174809F066FCBDE8F883164C42
:1010F000164D174E174FDFF86080DFF86090184AE2
:10110000C7E700BFB5AF02007DAF02003EAF0200EF
:10111000FEA5020036AC0200FEA802003800030063
:101120003C000300400003004400030048000300AB
:101130004C00030050000300400200101C0003009C
:1011400089A46D1B20000300F5CF0100B5CF01007D
:1011500036CF01007EC70100BEC601003EC40100BB
:10116000FDC0010038B5264C264A0021204609F072
:1011700022FC1023FF220021204609F0C8FC002495
:1011800001E00134E4B2022C0AD8142009F0A8FDD1
:1011900000211D4809F070FC0128F2D1002300E075
:1011A00001231BBB0025164C00221146204609F0E6
:1011B00026FC01220021144809F021FC0123FF2212
:1011C0000221204609F0A3FC0021104809F02CFC64
:1011D0006FF0604398420CD000210D4809F024FCC8
:1011E0006FF06043984207D0284638BD4FF0FF3576
:1011F000D9E74FF0FF35EFE74FF0FF35F4E700BFD9
:101200000C0004000100020020000400140004008F
:101210001C00040070B504460026012806D0FFF724
:10122000A1FF0546012C10D0284670BD0A4D31465D
:10123000284609F010FC064640F205134FF6FF72EF
:101240000021284609F04CFCE9E700233246194604
:10125000014809F045FCE7E7480007001318B3F51B
:10126000806F20DA70B505460E4614467F2A08D8EE
:101270000B46024621464FF4A01009F093FB0020D4
:1012800070BD14220021094809F095FB2246002177
:10129000074809F090FB33462A4600214FF4E81036
:1012A00009F080FBEBE74FF0FF30704704001F00B0
:1012B00008001F0008B57F2909D840EA014040EA2C
:1012C000C2230B4A0021242009F0E3FB08BD803132
:1012D00040EA014040EAC223054A0021242009F0E7
:1012E000D8FB00214FF4002009F0C6FBEEE700BF59
:1012F00000F400FC2DE9F84F044690F800800379D3
:10130000182B04D8C378182B16D9012700E0012721
:10131000FFB2E379012B11D04FF0000B6378013B52
:10132000062B00F2F880DFE813F0F900F600F60073
:101330000C00F300F6000F000027E9E74FF0100B58
:10134000ECE74FF0200A01E04FF0480AB64B1E6868
:10135000338A23F0E0033382E3793373637B023310
:1013600001259D401FFA85F94FEAC900FEF77EFF6F
:10137000AE49FEF7D3FFFFF721F97082237B737527
:10138000A27B1B0303F4304343EA0243227A520157
:1013900002F0200213434BEA0303A54A0021102068
:1013A00009F077FB002F40F0BC80237BABB1A37B1F
:1013B000012B40F2DB80607B042210219D4B33F82F
:1013C000100009F0DBFA0AEBC90A00F07F034FF6C0
:1013D00080720221984809F083FBBAF1FF0F40F3B5
:1013E000CE80914B1A68138A43F0200313824FF486
:1013F00080636FF4C0520021904809F04AFBA37843
:10140000FC2200214FF4C02009F081FB6A1ED2B2F9
:1014100000214FF4003009F0F2FA6378072B00F056
:10142000B780002009F08AFB237B03F00303032B22
:1014300000F0B280824A0021824809F0BCFA002103
:10144000814809F0F1FA20F4FF5020F01F00B8F1B4
:10145000090F00F0A7802279120202F4F852024329
:10146000E378DB00DBB213436279520002F006023C
:101470001A430021744809F09EFAA27963781B038D
:1014800043EA82236FF474420021242009F001FB17
:1014900063890BB981236381628902214FF4C020E3
:1014A00009F09EFAB8F1090F7FD0684A0021684818
:1014B00009F081FA41F63C7200214FF4102009F046
:1014C0008FFA14220121634809F099FA0E220221B1
:1014D000614809F094FA81220021604809F08FFAEE
:1014E00002220021442009F08AFA0120FFF782FD40
:1014F0000025052D6BD8142009F0F2FB00214420B3
:1015000009F0BAFA10F0020F7DD10135EDB2F0E723
:101510004FF0800A1AE74FF4807A17E74FF0400A3D
:1015200014E7414B1A68138A43F0600313824FF4A7
:1015300040636FF4C0520021404809F0AAFA40F21B
:1015400006320021464809F036FA002211464FF0D3
:101550000E1009F030FA434A0021374809F02BFAFF
:101560007D220021404809F04AFA48E7607B0322C7
:101570001021304B33F8100009F000FA23E74FF444
:10158000A0536FF4C05200212C4809F082FA36E7CC
:10159000082009F0D3FA47E7344A0021294809F026
:1015A0000AFA4CE740F0010055E7314A002128488B
:1015B00009F001FA40F63C7200214FF4102009F0C6
:1015C0000FFA2C4A00212C4809F0F5F979E701239C
:1015D0003BBB2379093BDBB20F2B1BD8124B1B689B
:1015E0005B7A012B11D04046FFF746FD4FF4C8430C
:1015F00048F2FF120021214809F072FA0120FFF79A
:1016000009FEBDE8F88F0023E2E74FFA88F0FFF704
:1016100067FCEBE70023FE221946184809F077FA29
:10162000ECE74FF0FF30ECE7DC0400206666663F35
:10163000CF4FFCFF60E6000012000E0008000B0018
:101640004C585FAF0C000600140001003411071C59
:101650001C000700500007001800070008000900E0
:101660000C000E000A5A0C0016000E00CC355FAFBD
:101670003400011C33A8B50810000700180003004F
:1016800070B506460D461446134B1B68DB7B032BD7
:101690000DD04FF490106319B3F5806F06DA7F2CEC
:1016A00008D833462A46214609F0B6F970BD4FF4F2
:1016B0009810F0E7020C0021084809F07CF9224656
:1016C0000021074809F077F933462A4600214FF4F4
:1016D000E81009F0A1F9E9E7DC04002004001F008C
:1016E00008001F0010B5002211464FF4202009F019
:1016F00077F900221146074809F081F9064C0022CB
:101700001146204609F07BF902220021204609F00B
:1017100076F910BD14000A0004000A0010B509F0A3
:1017200007FA04460346094A032109480AF0F5F975
:10173000084B9C4204D0103B9C4203D1002010BDBA
:101740000020FCE74FF0FF30F9E700BF50E6000053
:1017500020E500001203CADEF8B50446434B1B68BF
:101760000022DA73022119821A755A759A72DA7296
:101770009A62DA621A635A63DA639A63FFF7CEFFFA
:1017800000286FD106460420FFF78CFB0546052094
:10179000FFF788FB07460A20FFF784FB334B1A68E4
:1017A000C0F30440107215B10FB1002836D12020CB
:1017B000FFF778FB2E4B984233D02C4B1B6800224E
:1017C0005A7214F0100F31D114F0200F35D114F0EB
:1017D000400F39D114F0800F3DD1244B1B68DA7AC9
:1017E0000AB98522DA729A7A0AB974229A721F208B
:1017F000FFF758FB1D4C236858731E20FFF752FB60
:10180000236800F07F00987308B92E229A739A7BA0
:101810000021184809F0F3F83046F8BDFFF7D0FB77
:10182000C5E7124B1B6801225A72CAE70F4B1D68AD
:101830000620FFF737FB2860C6E70C4B1D68072022
:10184000FFF730FB6860C2E70820FFF72BFB074B70
:101850001B689872BEE70920FFF724FB034B1B6847
:10186000D872BAE74FF0FF36D6E700BFDC0400209D
:10187000400200101400090038B510F0010F25D007
:1018800004464FF410736FF47C6200214FF4A020E3
:1018900009F0FFF84FF404034FF0FF320021134822
:1018A00009F0F7F814F002040ED14FF488752A46B7
:1018B00000210F4809F07FF8BCB105F488720021BF
:1018C0000B4809F078F810E00A4DF0E700236FF4B8
:1018D0007C6219464FF4A02009F0DBF800234FF694
:1018E000FF621946024809F0FBF838BD04001100F8
:1018F0001600110010010F0008B510F01D0F6DD07B
:1019000010F0010F1FD010F0020F15D000231A465F
:1019100019460D2009F046F80321442009F0ACF8DF
:1019200010F0080F51D10021414809F07DF8B0F5C1
:10193000502F41D0002008BD00231A46194603202D
:1019400009F030F8E8E710F0080F10D010F0020F9F
:1019500006D000231A4619460F2009F023F8DBE7CA
:1019600000231A461946072009F01CF8D4E710F0A6
:10197000100F10D010F0020F06D000231A4619469F
:101980000E2009F00FF8C7E700231A461946052074
:1019900009F008F8C0E710F0020F06D000231A463D
:1019A0001946102008F0FEFFB6E700231A46194634
:1019B000092008F0F7FFAFE700231A46194618463A
:1019C00008F0F0FF4FF0FF30B5E700231A46194644
:1019D000184608F0E7FF4FF0FF30ACE710F0200F9B
:1019E00012D010F0020F07D000231A46194611201A
:1019F00008F0D8FF00209EE700231A4619460B2066
:101A000008F0D0FF002096E710F0020F07D0002367
:101A10001A4619460C2008F0C5FF00208BE700236A
:101A20001A461946012008F0BDFF002083E700BFD9
:101A300030000F0008B5FFF755FE012009F04CF902
:101A40000323FF220021094809F061F80022114612
:101A50004FF4881008F0D3FF012009F03DF9044B42
:101A60001B680122DA7300221A8208BD04001100EB
:101A7000DC04002038B505460C460120FFF7FAF9D2
:101A800000212046FFF746FA2046FFF77DFAC5F30E
:101A90000B0200210F4808F0A3FF0323FF220021BF
:101AA0000D4809F034F800210B4808F0E5FF10F06C
:101AB000010FF8D1FFF7BAF90020FFF7C1F90520AF
:101AC000FFF7D8F90021054808F0D6FF00F03F00E5
:101AD00038BD00BF1C000800100008001C000700F3
:101AE00010B50446038953B9027800210B4808F069
:101AF00086FF626800210A4808F05DFF10BD0021E2
:101B0000084808F0B9FF10F0010F04D10521208921
:101B1000FFF7B0FFEDE70921F9E700BF1C00070060
:101B20000C00010014000100B0B582B000AF6C469B
:101B300000233B7102237B718AB0EC461CF110023A
:101B40001AD0122022B1042802DDB34BCCF8143095
:101B500000233B7002237B70E2B10346082802DDBC
:101B6000AE49CCF818100C2B02DD0B23CCF81C303E
:101B70000CF1200300210BE06FF00040E2E701F1DF
:101B8000080505EB070E1EF808EC03F801EB013120
:101B90000129F4D9112859DD12234AB104213971E0
:101BA00000217971B9710121F9717868CCF81000C0
:101BB00000216FF300016FF341016FF382016FF3B6
:101BC000C501032060F38811C3F30A0363F35321B3
:101BD0006FF31F510023924801F0E0FFA5468F48A4
:101BE00006F05AFF8F4B186098B34FF400320B2168
:101BF00009F007F801220B218A4B186809F039F81F
:101C00006C4600233B7102237B718AB0EC461CF1C9
:101C1000100272D0122022B1042802DD824BCCF8CF
:101C2000143000233B7002237B70002A73D00346DC
:101C3000082802DD7949CCF818100C2B02DD0823A6
:101C4000CCF81C300CF12003002162E06FF01B0384
:101C5000A3E76D4600233B7102237B7188B06C467D
:101C600014F1100212D00E201AB1042801DD6F4BBE
:101C7000636100233B7002237B70A2B1082801DD61
:101C8000664BA36104F11C0300210AE06FF00040E1
:101C9000EAE701F1080CBC441CF808CC03F801CBBE
:101CA00001310129F5D90D2824DD0E2342B103218C
:101CB000397100217971B9710121F9717868206158
:101CC00000216FF300016FF341016FF382016FF3A5
:101CD000C501012060F38811C3F30A0363F35321A4
:101CE0006FF31F5100234E4801F058FFAD464FF0EF
:101CF000FF3061E36FF01B03D8E76FF000408AE725
:101D000001F1080505EB070E1EF808EC03F801EBDE
:101D100001310129F4D911285BDD12234AB10421D4
:101D2000397100217971B9710121F9717868CCF8A4
:101D3000100000216FF300016FF341016FF3820186
:101D40006FF3C501032060F38811C3F30A0363F343
:101D500053216FF31F510023314801F01FFFA546A7
:101D60002E4806F099FE324B1860A8B34FF40032AB
:101D7000082108F046FF012208212D4B186808F0C1
:101D800078FF6C4600233B7102237B718AB0EC46DE
:101D90001CF1100200F08480122022B1042802DD20
:101DA000244BCCF8143000233B7002237B70002AB4
:101DB00000F084800346082802DD1849CCF818108A
:101DC0000C2B02DD0523CCF81C300CF12003002184
:101DD00072E06FF01B03A1E76D4600233B71022305
:101DE0007B7188B06C4614F1100212D00E201AB12B
:101DF000042801DD0D4B636100233B7002237B70DF
:101E000022B3082801DD054BA36104F11C03002166
:101E10001AE06FF00040EAE77CE60000A8E6000068
:101E200060E50000704D0020D0E60000B8E600003C
:101E30006C4D0020F8E6000001F1080CBC441CF8D1
:101E400008CC03F801CB01310129F5D90D2824DD97
:101E50000E2342B10321397100217971B971012139
:101E6000F9717868206100216FF300016FF341017F
:101E70006FF382016FF3C501012060F38811C3F392
:101E80000A0363F353216FF31F510023B14801F09C
:101E900085FEAD464FF0FF308EE26FF01B03D8E7B2
:101EA0006FF0004079E701F1080505EB070E1EF819
:101EB00008EC03F801EB01310129F4D9112859DDAF
:101EC00012234AB10421397100217971B9710121BC
:101ED000F9717868CCF8100000216FF300016FF3FE
:101EE00041016FF382016FF3C501032060F3881194
:101EF000C3F30A0363F353216FF31F510023954883
:101F000001F04CFEA546944806F0C6FD934B1860C0
:101F100098B34FF40032052108F073FE0122052129
:101F20008E4B186808F0A5FE6C4600233B71022317
:101F30007B718AB0EC461CF1100272D0122022B1E3
:101F4000042802DD864BCCF8143000233B700223BA
:101F50007B70002A73D00346082802DD7E49CCF846
:101F600018100C2B02DD0423CCF81C300CF12003DC
:101F7000002162E06FF01B03A3E76D4600233B7175
:101F800002237B7188B06C4614F1100212D00E202F
:101F90001AB1042801DD734B636100233B700223F7
:101FA0007B70A2B1082801DD6B4BA36104F11C0317
:101FB00000210AE06FF00040EAE701F1080CBC44A0
:101FC0001CF808CC03F801CB01310129F5D90D2803
:101FD00024DD0E2342B10321397100217971B971D9
:101FE0000121F9717868206100216FF300016FF31E
:101FF00041016FF382016FF3C501012060F3881185
:10200000C3F30A0363F353216FF31F5100235148B5
:1020100001F0C4FDAD464FF0FF30CDE16FF01B0382
:10202000D8E76FF000408AE701F1080505EB070EDD
:102030001EF808EC03F801EB01310129F4D911284D
:102040005BDD12234AB10421397100217971B97124
:102050000121F9717868CCF8100000216FF30001BC
:102060006FF341016FF382016FF3C501032060F349
:102070008811C3F30A0363F353216FF31F51002345
:10208000344801F08BFDA546334806F005FD364B7C
:102090001860A8B34FF40032042108F0B2FD012209
:1020A0000421314B186808F0E4FD6C4600233B71B5
:1020B00002237B718AB0EC461CF1100200F0828092
:1020C000122022B1042802DD284BCCF81430002362
:1020D0003B7002237B70002A00F0828003460828B0
:1020E00002DD1D49CCF818100C2B02DD0223CCF8C0
:1020F0001C300CF12003002170E06FF01B03A1E7FE
:102100006D4600233B7102237B7188B06C4614F14D
:1021100010021CD00E201AB1042801DD114B63619E
:1021200000233B7002237B7012B3082801DD0A4BA9
:10213000A36104F11C030021012919D801F1080C45
:10214000BC441CF808CC03F801CB0131F4E76FF074
:102150000040E0E760E50000A8E60000684D0020D0
:1021600024E70000B8E60000644D002050E70000BE
:102170000D2824DD0E2342B103213971002179712C
:10218000B9710121F9717868206100216FF30001B4
:102190006FF341016FF382016FF3C501012060F31A
:1021A0008811C3F30A0363F353216FF31F51002314
:1021B000AE4801F0F3FCAD464FF0FF30FCE06FF0AD
:1021C0001B03D8E76FF000407BE701F1080505EB42
:1021D000070E1EF808EC03F801EB01310129F4D9D0
:1021E000112853DD12234AB104213971002179717C
:1021F000B9710121F9717868CCF8100000216FF3F2
:1022000000016FF341016FF382016FF3C5010320F9
:1022100060F38811C3F30A0363F353216FF31F5173
:102220000023924801F0BAFCA546914806F034FC20
:10223000904B186068B34FF4B012022108F0E1FC33
:102240006C4600233B7102237B718AB0EC461CF183
:10225000100272D0122022B1042802DD864BCCF885
:10226000143000233B7002237B70002A73D0034696
:10227000082802DD7E49CCF818100C2B02DD012362
:10228000CCF81C300CF12003002162E06FF01B033E
:10229000A9E76D4600233B7102237B7188B06C4631
:1022A00014F1100212D00E201AB1042801DD734B74
:1022B000636100233B7002237B70A2B1082801DD1B
:1022C0006B4BA36104F11C0300210AE06FF0004096
:1022D000EAE701F1080CBC441CF808CC03F801CB78
:1022E00001310129F5D90D2824DD0E2342B1032146
:1022F000397100217971B9710121F9717868206112
:1023000000216FF300016FF341016FF382016FF35E
:10231000C501012060F38811C3F30A0363F353215D
:102320006FF31F510023514801F038FCAD464FF0C8
:10233000FF3041E06FF01B03D8E76FF000408AE701
:1023400001F1080505EB070E1EF808EC03F801EB98
:1023500001310129F4D9112831DD12234AB10421B8
:10236000397100217971B9710121F9717868CCF85E
:10237000100000216FF300016FF341016FF3820140
:102380006FF3C501032060F38811C3F30A0363F3FD
:1023900053216FF31F510023344801F0FFFBA54682
:1023A000334806F079FB364B186058B14FF4B01241
:1023B000012108F026FC00200837BD46B0BD6FF0B3
:1023C0001B03CBE76D4600233B7102237B7188B072
:1023D0006C4614F1100212D00E201AB1042801DD4F
:1023E000264B636100233B7002237B70A2B1082857
:1023F00001DD1F4BA36104F11C0300210AE06FF013
:102400000040EAE701F1080CBC441CF808CC03F8D2
:1024100001CB01310129F5D90D2824DD0E2342B16C
:102420000321397100217971B9710121F97178683D
:10243000206100216FF300016FF341016FF382010E
:102440006FF3C501012060F38811C3F30A0363F33E
:1024500053216FF31F510023044801F09FFBAD4649
:102460004FF0FF30A8E76FF01B03D8E760E50000EE
:10247000A8E600005C4D002080E70000B8E6000000
:10248000604D002090B583B000AF6C4600233B71D7
:1024900002237B7188B0EC461CF1100214D00E2090
:1024A00022B1042802DD274BCCF8143000233B7006
:1024B00002237B70AAB1082802DD234BCCF8183028
:1024C0000CF11C0300210AE06FF00040E8E701F185
:1024D000080EBE441EF808EC03F801EB0131012997
:1024E000F5D90D282BDD0E234AB1032139710021C6
:1024F0007971B9710121F9717868CCF81000002167
:102500006FF300016FF341016FF382016FF3C501B7
:10251000032060F38811C3F30A0363F353216FF3BD
:102520001F510023094801F039FBA54608F0CCFBF8
:10253000FFF780FA08F0CCFB0C37BD4690BD6FF07A
:102540001B03D1E7D8E50000ACE7000060E5000020
:10255000014B185C704700BFE0040020F0B583B069
:1025600000AF6C4600233B7102237B710123BB71DA
:102570000323FB718AB0EC461CF1100222D04FF00D
:10258000140E2AB1BEF1040F02DDA54BCCF81430B5
:1025900000233B7002237B702AB1BEF1080F02DDDD
:1025A000A04BCCF818300123BB700323FB70B2B1F1
:1025B000BEF10C0F02DD9C4BCCF81C300CF120035B
:1025C00000210AE06FF0004EDBE701F1080038441B
:1025D00010F8080C03F8010B01310329F5D9BEF1FD
:1025E000130F32DD14234AB10421397100217971AE
:1025F000B9710221F9717868CCF8100000216FF3ED
:1026000000016FF341016FF382016FF3C5010320F5
:1026100060F38811C3F30A0363F353216FF31F516F
:102620000023824801F0BAFAA546814806F034FA40
:102630000446804B186058B17E4A0C231371002366
:1026400093600121D1809C4662E06FF01B03CAE7D2
:102650006D4600233B7102237B7188B06B4613F1FA
:10266000100212D00E201AB1042801DD72495961FE
:102670000021397002217970A2B1082801DD694971
:10268000996103F11C0100240AE06FF00040EAE7C1
:1026900004F108063E4416F8086C01F8016B013499
:1026A000012CF5D90D2824DD0E2442B10321397106
:1026B00000217971B9710121F971786818610021DF
:1026C0006FF300016FF341016FF382016FF3C501F6
:1026D000012363F38811C4F30A0464F353216FF3F5
:1026E0001F510023514801F059FAAD464FF0FF3019
:1026F0003FE06FF01B04D8E70CEB8C024F4B03EB71
:10270000820308334B4A07CA83E807000CF1010C27
:10271000BCF1030FF0D901220C21204608F0F4FA95
:10272000474B464A1A60404806F0B6F9454B1860D8
:1027300010B3434B1B684FF480729A80424A1A6070
:10274000424DFF263246002128460BF006FD404C44
:102750003246002120460BF000FD3E4B1D609C6080
:102760003D490B603D4A0833136001234B605360C1
:1027700000200C37BD46F0BD6D4600233B7102239F
:102780007B7188B06C4614F1100212D00E201AB181
:10279000042801DD324B636100233B7002237B7010
:1027A000A2B1082801DD1F4BA36104F11C03002125
:1027B0000AE06FF00040EAE701F108063E4416F82F
:1027C000086C03F8016B01310129F5D90D2824DDCE
:1027D0000E2342B10321397100217971B9710121B0
:1027E000F9717868206100216FF300016FF34101F6
:1027F0006FF382016FF3C501012060F38811C3F309
:102800000A0363F353216FF31F510023074801F0BC
:10281000C5F9AD464FF0FF30ABE76FF01B03D8E7CB
:10282000C0E7000010E80000CCE7000028E5000049
:10283000A8E60000744D0020DCE70000A04F002057
:10284000F04F0020F44F002080841E00A04E002096
:10285000A04D0020904D0020884D0020804D00208C
:10286000F8E7000010B50A4B0A4A13604FF4807273
:102870009A80094A1A60FF242246002107480BF07B
:102880006CFC2246002106480BF067FC10BD00BF1F
:10289000A04F0020F04F002080841E00A04E00209A
:1028A000A04D002010B50C4B0C4A13604FF4807201
:1028B0009A80143B02F1987202F596325A61FF2415
:1028C0002246002106480BF048FC2246002105481C
:1028D0000BF043FC10BD00BFB44F0020F04F0020B0
:1028E000A04E0020A04D00202DE9F0418418A4B294
:1028F0000134A4B2FF2C22D8064615461F46DFF845
:102900004480024640460BF01AFC2A46394608EB42
:1029100006000BF014FC35449DF8183008F805301B
:10292000094B5C60DC60094B1868094B19688368C7
:102930001C68084B084AA0470020BDE8F0814FF012
:10294000FF30FAE7A04E0020904D0020F44F002009
:10295000F04F0020804D0020884D0020F8B505463E
:1029600014461E460C4F024638460BF0E8FB224642
:10297000314678190BF0E3FB2C44084B5C60DC60BB
:10298000074B1868074B196883681C68064B074A91
:10299000A0470020F8BD00BFA04E0020904D0020B1
:1029A000F44F0020F04F0020804D0020884D002083
:1029B0002DE9F04383B00446884615461E46871825
:1029C000DFF854903A46002148460BF0C6FB2246F9
:1029D000414648460BF0B3FB104B5F60DF60104B85
:1029E0001868104B196883681F680F4B0F4AB84767
:1029F0000023019302E001990131019101991D2900
:102A0000F9DD2A460A49214430460BF098FB0020A4
:102A100003B0BDE8F08300BFA04E0020904D002021
:102A2000F44F0020F04F0020804D0020884D002002
:102A3000A04D00202DE9F04F91B00592029313466E
:102A400002F004020092C3F3C20210F003030193E8
:102A500040F02D8280468A460132041D00284FD066
:102A6000B8F1000F05D0A4EB08030433534500F27E
:102A70002182029B5D1E019B049306930393002613
:102A80004FF0FF3B0427B946B8F1000F01D0029B7D
:102A90002360531E0793002A40F35F81059B13F0C8
:102AA000020228D00120A4EB08018B081AB1B1F56D
:102AB000007F80F0058203990F2900F20482B8F1AB
:102AC000000F00F06281DBB201F140026A4402F8BB
:102AD000103C02F820BC002800F0538163F07F0313
:102AE00001F140026A4402F8103C049B0133049354
:102AF000039B0133039304340022CC4640463DE05F
:102B000001F0070A5444CAF1080AA9E7002634E094
:102B1000002632E0002630E00827BC462DE02529BB
:102B20002BD10BF1010B01260427BC4625E04729D8
:102B3000EED82A2914D32A39C9B24FF0010E0EFA61
:102B400001F14FF6DA7E11EA0E0F16D111F0625F35
:102B500040F0C18011F0010F40F08C8000260CE0A5
:102B6000252903D10BF1FF3B002606E001D9002601
:102B700003E0202901D02329CCD11D466B1C6978A4
:102B8000002900F01B81002EC9D07A29BED84C291B
:102B9000CDD34C392E2961D80FF2040E5EF821F006
:102BA0007B2B00005D2C00005D2C00005D2C0000E4
:102BB0005D2C00005D2C00005D2C00005D2C0000F1
:102BC0005D2C00005D2C00005D2C00005D2C0000E1
:102BD0006D2C00005D2C00005D2C00005D2C0000C1
:102BE0005D2C00005D2C00005D2C00005D2C0000C1
:102BF0005D2C0000D72C00005D2C00006D2C000027
:102C00006D2C0000D72C0000D72C0000D72C000022
:102C10007B2B00006D2C0000192B00005D2C0000A8
:102C20007B2B00005D2C0000332D00006D2C00007C
:102C3000332D00005D2C00005D2C00003B2D0000BA
:102C4000672C00006D2C00005D2C00005D2C000046
:102C50006D2C00005D2C0000612C000000268CE72C
:102C60000427BC4689E70427BC4686E729786C29F7
:102C700025D000263C44013CB4FBF7F407FB04F4E8
:102C8000254620B1211A6144514500F21681002ADF
:102C900058D1BCF1040F00F08980BCF1080F40F05E
:102CA00015811A99073121F0070101F108051A95DC
:102CB000D1E9008908B1C4E9008908345DE713F857
:102CC000021C6C2903D000260427BC46D2E700264C
:102CD0000827BC46CEE729784C291AD01A99073123
:102CE00021F0070101F108061A96D1E900670734BF
:102CF00024F0070440B1211A0831514513D829782E
:102D00004C2913D0C4E90067083400260827BC46C4
:102D100033E71A99073121F0070101F108061A96E5
:102D2000D1E90067E3E76FF01B00BDE0C4E900678D
:102D3000EAE700260427BC469CE732460026042723
:102D4000BC4697E72C46E14680461A9A111D1A9117
:102D500012680292079A1D4696E6624B029A9A42C0
:102D600004D3614B9A420AD3002300E00023002BD6
:102D70007FF494AE059B03F00202002093E601234A
:102D8000F5E7069B01330693B2E610B10AF1010A9A
:102D9000AEE6009B13B10AF1020AA9E60298FDF71C
:102DA00057FC00EB0A0303F1020AA1E61A990D1D74
:102DB0001A95096800B121600434DEE68046231AC2
:102DC000B3F5806F80F0858090B1002202609B088F
:102DD0000370009B83B1069BC370049B88F802308C
:102DE0001BBB019DDDF80C90DDF810B0029F3DE0AB
:102DF0005344A3F1080057E0069B4370EDE701330D
:102E00009842EED903F140026A4412F8101C12F9FC
:102E1000102C002AF3DA01F07F01A4EB0802013242
:102E2000524559D804F8011BE9E7019B0398E7E7ED
:102E3000009B43B305F140036B4413F8203C04F8B6
:102E4000013B019EA4EB080333440133534546D8AC
:102E500005F140036B4413F8103C04F8013B324683
:102E6000394620460BF06BF934440135A94519D990
:102E7000BBF1000FDCD005F140036B4413F9103CAB
:102E8000002BD5DAF1E705F140036B4413F8103C51
:102E900058F82370002248F823203846FDF7D8FB65
:102EA000461CCFE7A4EB080011B0BDE8F08F6FF02F
:102EB0000D00F9E76FF01B00F6E76FF01B00F3E77A
:102EC0006FF01500F0E76FF01500EDE76FF01500FB
:102ED000EAE76FF01500E7E76FF01B00E4E76FF03B
:102EE0001B00E1E754E20000ECF700002DE9F04F91
:102EF00097B000AF8346BA613B61D7F88030C3F327
:102F0000C0033B62F96011B908F031F8F8609BF832
:102F10000260B14636B1D7F8803013F0010F0DD101
:102F2000002300E000239BF803207A6242B1D7F827
:102F3000802012F0020F22D1002202E00123F2E7EA
:102F4000002202B9EBB19BF80050AA00BA60DBF88E
:102F500004207A610BEB8505BA69F2B1002B40F0D1
:102F60000481B9F1000F00F00F81D7F8803013F021
:102F7000040F40F00D810020F8610646F9E00122BF
:102F8000DFE7BB691BB13A69F96858469847FC68A6
:102F900020465C37BD46BDE8F08FFC68E3B94D4480
:102FA00000233B6123E00444013501364E451AD22B
:102FB0002A7800235BF822201946B86907F0ECFF55
:102FC000BAF1000FEFD0D7F888309845EBD22AF845
:102FD000180008F10108E6E70026C7F81C80B04693
:102FE000D7F884A0E2E7C7F81080D7F81C80D7F89C
:102FF000803003F00503FB604FF0000AA146C7F8DC
:103000001CB09CE000253B6A7BB9002D79D0D7F835
:10301000803013F0010F79D1FB68002B6FD10223B0
:10302000A9EB030988E00125EDE75946786907F027
:10303000F9FF0028E9D06C46002387F82C300223E2
:1030400087F82D308AB0694611F1100237D0122569
:103050001AB1042D01DDB24B4B61002387F82830F3
:10306000022387F829306ABB112D45DD122362B196
:10307000042087F82C00002087F82D0087F82E0008
:10308000012087F82F00F86A08616FF300086FF3DA
:1030900041086FF382086FF3C508022161F38818B5
:1030A000C3F30A0363F353286FF31F580023414609
:1030B0009C4800F073FDA546A9F102093CE06FF0C1
:1030C0000045C5E72B46082D01DD786988610C2B8A
:1030D00001DDC1F81CB001F12003002009E000F17E
:1030E000300C07F1280EF4441CF830CC03F801CB67
:1030F00001300128F3D9B7E76FF01B03B7E70123CD
:103100008EE7D7F8803013F0020F15D00023224647
:103110001946B86907F040FFD7F8843053B13B69CE
:10312000D7F88820934205D2D7F8842022F81300DC
:1031300001333B61013881440AF1010A35467B6A5B
:103140009A4510D22E4616F802BB6B78FA6952F8EF
:103150002340754B9C42FFF455AF744B9C42FFF4E7
:1031600062AF00254FE74C4612E707F14400002309
:10317000FB6118B14A4629460AF0E1FF4D444FF081
:103180000008C7F804901EE00020F8610646F0E74A
:10319000FE6107F134000026EBE700253B6A33BBF4
:1031A000002D3BD0D7F8803013F0010F26D0731CD0
:1031B00006F1300207F12801561806F8149CDEB219
:1031C00008F1010825467B6A98454AD22C4614F836
:1031D00002AB95F801905BF82930534A9342DCD357
:1031E000524A934201D30025D8E70125D6E751463C
:1031F000786907F017FF0028D2D0E1E7D7F88030D0
:1032000013F0040FDCD0FA69531C303207F12801A7
:103210000A4402F8249CDBB2FB61D1E7D7F8803086
:1032200013F0020F09D0731C06F1300207F12801D8
:10323000561806F8149CDEB2C2E7F869431C00F188
:10324000300107F128028A1802F824AC0246023243
:10325000D2B2FA6107F1580252FA83F303F8249CC0
:10326000AEE7D7F804909BF8003087F854309BF80D
:103270000130334487F85530D7F8803013F0020F0F
:103280000ED1FB69C3F3470387F85730D7F8803076
:1032900013F0010F06D113F0040F3FD1002302E019
:1032A0000023F1E7002387F85630DBF8000038638D
:1032B000786DCBF80000D7F810804246B9685846C0
:1032C000D7F818A0D047041EFFF662AE386BCBF8D3
:1032D0000000C7F810804246F96907F13400D04772
:1032E000002856DB04EB0008B96849447B6A01EB0F
:1032F0004301D7F810904A46FB68591A2846D04730
:10330000041EFFF645AE08EB04054FF000087E6290
:10331000C7F820B05646D7F884B01EE0FB69C2E774
:1033200024E8000010E5000054E20000ECF7000083
:103330004FF0000A4A46012107F12C00B04700284F
:1033400029DB0544534622464946304607F024FE11
:10335000002822DB054408F101087B6A984511D258
:1033600008F1300307F12802134413F8143C87F8DE
:103370002C303A6A52F82340BBF1000FD8D03BF80A
:1033800018A0D7E73A6900210846BB6998472C4640
:10339000FEE50446FCE50446FAE50446F8E500BF10
:1033A000014B1860704700BF482D002080B50546CE
:1033B0000E461746984606F075FB03460AF040FF96
:1033C0000446DFF8189049F8003042463946304646
:1033D000A84754F8090001F04BFD00BF08000000A9
:1033E0002DE9F04383B0044608461546238B13F0BD
:1033F000080F05D103F0070600230093019354E062
:10340000012909D043F02003238385F31188BFF3FA
:103410006F8F03B0BDE8F08343F010032383F4E71C
:10342000204608F05EF942E0D4F814904A46694616
:10343000204608F06FF94FF00008238B03F00707D0
:10344000B74269D0A268002A66D0012243F008037F
:10345000238385F31188BFF36F8F002A64D1009B0B
:103460002BB14B463A466946204608F0CCF9B8F1F4
:10347000000F02D034492046C047EFF311852023C6
:1034800083F31288BFF36F8F238B23F0080323830A
:10349000238B13F0100F4DD023F010032383012052
:1034A000268B06F007060028AFD00228B8D00028E7
:1034B000ABD0013804282BD801A353F820F000BF6B
:1034C0002934000011350000D5340000E934000033
:1034D000FD3400002369D3F800800621204608F05F
:1034E000D6F84FF00009A8E72369D3F80480042137
:1034F000204608F0CCF84FF000099EE72369D3F886
:1035000008800521204608F0C2F84FF0000994E732
:103510004FF00008C14690E7009A0AB1002295E7F3
:10352000B8F1000F92D1B3E74A463946204608F079
:10353000B6F894E713F0200F04D023F02003238380
:103540000220ADE70020ABE735B8000038B50546EE
:103550000B4C00E010340B4B9C420FD263685B793C
:10356000002BF7D02946204608F025FA0028F1D094
:1035700023681B68294620469847EBE738BD00BF03
:1035800090E50000B0E5000070B506460D46084C19
:1035900004E02A463146204698471034054B9C42A9
:1035A00004D223689B69002BF3D1F6E770BD00BFFE
:1035B00090E50000B0E500002DE9F0410746054622
:1035C0000AE007EA0807144B03EB06135B680422C2
:1035D0001968204600F0B4FAD5B195FAA5F6B6FA06
:1035E00086F60D4C04EB06140123B3406FEA030882
:1035F00025EA0305237B002BEED03301064AD3587E
:103600001B69002BDDD0204698470028E4D1D8E77D
:103610003846BDE8F08100BF90E500002DE9F0419B
:1036200080460F46204BBFF35B8F53E8005F6A1C58
:1036300043E800210029F8D1BFF35B8F002D2FD183
:103640001A4C002607E0636804221968204600F03F
:1036500077FA01361034164B9C4213D2237B002B91
:10366000F7D02368DB680BB12046984723681B69B5
:10367000002BE8D0204698470028E4D00123B3402F
:103680001D43E6E7B8F1000F0BD055B12846FFF710
:1036900093FF0546002FF8D00A2008F092F9F4E7CE
:1036A00000252846BDE8F0810C50002090E5000080
:1036B000B0E5000008B5064B186018B1054B1B6853
:1036C000092B00DC08BD044805F0AAFDFAE700BF9D
:1036D00000500020085000205030002008B502485B
:1036E00005F09EFD08BD00BF5030002030B589B008
:1036F00000220F490F480AF000FD0F4D0022002361
:10370000CDE90623002404940E230393029401942C
:1037100000940A4B4FF44072094928460AF0ECFA2B
:10372000084928460AF0D4FA204609B030BD00BF47
:10373000DD36000068490020E0300020993A0000A2
:10374000405D0020DCE80000014B53F8200070478A
:10375000F8E8000048B108B5054A1060054B19604B
:10376000084600F00FFD002008BD6FF015007047FF
:103770004C2D0020FC4F002008B5054B1B781BB1D9
:10378000034B01221A7008BD024805F049FDF7E716
:10379000F45800205030002008B5104BBFF35B8F69
:1037A00053E8001F013143E80012002AF8D1BFF3AB
:1037B0005B8F30B90A480AF0ACFC0A4805F030FDCE
:1037C00008BD094BBFF35B8F53E8001F013943E885
:1037D0000012002AF8D1BFF35B8FEBE70450002002
:1037E000684900205030002008500020064B00207F
:1037F0000146BFF35B8F53E8000F43E80012002A35
:10380000F9D1BFF35B8F70470450002038B5FFF744
:10381000EDFF0546094C00E01034094B9C420BD2E9
:1038200063685B79002BF7D023685B68002BF3D0CB
:10383000294620469847EFE738BD00BF90E50000D5
:10384000B0E50000034B18680028D4BF0020012019
:10385000704700BF0450002010B5044C04492046B6
:1038600007F072FD034B1C6010BD00BFB02F00209D
:10387000E4E80000F84F002008B50023064A137062
:10388000064A1360064A13604FF400410548FFF7EB
:1038900061FFFFF7E1FF08BDF5580020045000204C
:1038A00008500020BBB9000008B50146014808F0E7
:1038B0009EF808BDB02F002008B5024807F025FE8D
:1038C00008BD00BFB02F002008B50146024B1868A4
:1038D00008F093F808BD00BFF84F002008B5024873
:1038E00008F08FF808BD00BFB02F002010B582B0DF
:1038F00000220023CDE90023284B187808B902B034
:1039000010BD684608F095F8044688B1244BBFF313
:103910005B8F53E8001F013943E80012002AF8D1F9
:10392000BFF35B8F2046FFF711FE2046FFF7CCFF69
:10393000FFF788FF58B91B4A1368516813F57A736B
:1039400041F1000113605160FFF7C8FFD7E70AF0AB
:10395000C5FB4A0142EAD06243011B1A62EB010235
:10396000920042EA93729B001B1842EB0102D200C4
:1039700042EA5372C3F3103343EA4243D20B09487D
:10398000016840685B1A62EB000240F2E9318B4249
:1039900072F10002CFD3FFF739FFCCE7F4580020D3
:1039A00008500020604900200F4B1B7803B170477E
:1039B00010B500210120FFF731FE0C4C00E010345F
:1039C0000B4B9C4208D263685B79002BF7D02368CD
:1039D0009B6820469847F2E7FFF788FF0028FBD155
:1039E000014B01221A7010BDF558002090E500002F
:1039F000B0E5000010B582B01A4BBFF35B8F53E8FF
:103A0000002F511C43E800100028F8D1BFF35B8F52
:103A1000154B1B7863B9154B1B68B3B1BAB1092AB2
:103A200013D113480AF075FB124805F0F9FB0CE0BE
:103A3000EFF31184202383F31288BFF36F8FFFF716
:103A400055FF84F31188BFF36F8F02B010BD0022C1
:103A50000023CDE900234FF400420023044806F080
:103A60007BFAF2E708500020F558002000500020B3
:103A7000684900205030002010B50446044B1B68F4
:103A80009847A0602146034807F0D7FF10BD00BF4C
:103A90004C2D0020B02F00202DE9F04100210846D8
:103AA000FFF7BCFD804650B140F2676600270AF080
:103AB000C7FB154B1858FFF7FDFD002515E04FF02B
:103AC000FF364FF0FF37F2E74046FFF775FD8046BF
:103AD00070B94FF0FF364FF0FF3709E02C46324601
:103AE0003B460A4805F0C2FB2546B8F1000FEBD172
:103AF000FFF7FCFE04460028F6D1002DEED0002191
:103B00000846FFF741FDEAE70800000050300020BA
:103B10000248034BC01AC008704700BF90E5000080
:103B200010E5000010B50C46FFF7F2FFA04203D9E4
:103B3000024B53F8340010BD0020FCE710E50000F4
:103B400008B5094BC31A1B110133D0F804C08CF817
:103B5000043043689A7143681960436801225A71BE
:103B6000FFF70AFE08BD00BF90E5000000B589B070
:103B7000059206930023079362B1074A0C9B0293B8
:103B80000B9B01930A9B009305ABFFF7AFF909B0BC
:103B90005DF804FB0022F1E74BBA00002DE9F04F7D
:103BA0008BB004AF05461E468846C1F34A24002C5C
:103BB00000F0898091460022FA603A617A6104231C
:103BC0000293FB1801930A23009307F10C0321468B
:103BD0004846FFF78BF9B0F5006F58D3D9F80410B9
:103BE0006D4600233B7302237B738AB004AC14F14F
:103BF000100217D012201AB1042801DD3B4B63617B
:103C000000233B7002237B70CAB10346082800DD05
:103C1000A1610C2B02DD40F2FF73E36104F120038C
:103C200000210AE06FF00040E5E701F118063E448C
:103C300016F8186C03F8016B01310129F5D9112828
:103C400022DD122342B10421397300217973B97343
:103C50000121F973F868206100216FF300016FF30F
:103C600041016FF382016FF3C501022060F38811F7
:103C7000C3F30A0363F353210023C1F313011C4868
:103C800007F056FFAD462DE06FF01B03DAE760F357
:103C90005328C0F30A0A0AEB1850173020F0070027
:103CA0008008FFF701FE8346B0B104230293FB189E
:103CB00001930A230093534600F11002214648461F
:103CC000FFF754FF08E004EB1154173424F0070405
:103CD000A008FFF7E9FD8346334642462946584689
:103CE00007F0C9FE1C37BD46BDE8F08F18E900009B
:103CF00030E500002DE9F04F85B080460D461746AF
:103D00001E46DDF838B0DDF84090B9F1000F41D023
:103D1000119B039300934B460F9A10210020FEF74E
:103D200089FEB0F5006F2DD282460BEB00031733EE
:103D300023F0070300246FF300046FF341046FF3D3
:103D4000820468F3C50467F3881460F353246BF3AB
:103D50001F549808FFF7A8FD074650B11030B9F17D
:103D6000000F06D0119B00934B460F9A5146FEF769
:103D700061FE334622462946384607F07CFE05B0F0
:103D8000BDE8F08F40F2FF73034A0221034807F0B9
:103D9000C4FEF4E70020C7E758E9000030E5000062
:103DA000406820B1034BC01A40F3CF0070474FF07A
:103DB000FF30704710E500000EB400B582B0014638
:103DC00003AB53F8042B0193034801F0D7FA02B078
:103DD0005DF804EB03B0704767BB000030B585B0F9
:103DE00011F0440F05D01A4B1C6834B9002005B0FF
:103DF00030BD1849FFF7E0FFF9E7174B1968B2FB30
:103E0000F1F1B1FBF4FC154AA2FB0C32D20A4FF4DB
:103E1000616E0EFB12CE124BA3FB0E535B0904FB2B
:103E20001C114FF47A7C0CFB01F1B1FBF4F504FB9F
:103E300015110CFB01F1B1FBF4F102910195C3EBFB
:103E40000311AEEB810100910649FFF7B5FFCEE704
:103E50001450002090E9000010500020C5B3A2913A
:103E6000898888889CE9000061B108B52AB1064AB2
:103E700052F8232012B9054A00E0044A0449FFF72A
:103E80009BFF08BD704700BF10EA0000B8E90000C2
:103E9000D8E500002DE9F04105461746069EDDF8FD
:103EA0001C8081B900242EB1324611492846FFF703
:103EB00083FF0444B8F1000F14D06FB1099B042BA9
:103EC00013D00C4909E00C4B099A53F822200B49F6
:103ED000FFF772FF0446E6E7064942462846FFF729
:103EE0006BFF04442046BDE8F0810549F5E700BFBB
:103EF000D4E90000C4E9000034EA0000CCE9000085
:103F0000C0E900002DE9F04F87B005460C46049249
:103F100005939DF84C7001F0020B01F0010AC1F30A
:103F2000C00801F4807907F08EFD18B302461649E7
:103F30002846FFF741FF0646BBF1000F1CD13A4669
:103F40005146284607F03AFEB9F1000F01D0002390
:103F500011930397129B0293119B0193109B009363
:103F60000023049A41462846FFF794FF304407B0E7
:103F7000BDE8F08F0026DFE7059A21462846FFF7C7
:103F80002DFF0644DBE700BFD8E9000011F0100F59
:103F90000BD108B511F0200F03D00449FFF70CFF37
:103FA00008BD0349FFF708FFFAE770473CEB000044
:103FB000B8F600002DE9F04105460F461646984632
:103FC0000699FFF7E3FF0024444505DA2449284613
:103FD000FFF7F2FE0134F7E7002409E02049284604
:103FE000FFF7EAFE0BE01F492846FFF7E5FE013424
:103FF0000F2C0CDC002C02DD14F0070FEED0B442C5
:10400000F1D23A5D18492846FFF7D6FEEFE7174987
:104010002846FFF7D1FE002409E011492846FFF7A2
:10402000CBFE0BE012492846FFF7C6FE01340F2CE9
:1040300013DC002C02DD14F0070FEED0B44207D2DF
:104040003A5D0C4B9B5C13F0970FEBD12E22E9E706
:1040500003492846FFF7B0FEE8E7BDE8F08100BF5E
:10406000D0E90000E4E90000DCE90000E8E9000034
:10407000ECE90000DDF600002DE9F04184B00446D3
:104080009DF82C500C9F0E9E95B9012B1ED01948FF
:104090004FF0000827B13B462246174906F092FF31
:1040A000C6B905BB204607F047FD04B0BDE8F08166
:1040B00003950A980290019300920B4600220F99F3
:1040C0002046FFF71FFF80460C48E3E70B484FF000
:1040D0000008DFE70F9B0093434632460D992046C8
:1040E00007F084FDDDE72A460F99204607F072FDB0
:1040F000D8E700BF9FBB00007D53000067BB0000F6
:104100002DE9F04383B00646056842F20F738B42F7
:1041100028BF0B46184A0521684606F04DF90446AB
:104120007368D3F804900427DFF8508005E04A460E
:1041300039464046A8473F1A8044002FF7D173689C
:10414000D3F804806F4605E0424621463846A8472A
:10415000241A0744002CF7D173685F681724084EAF
:1041600005E03A4621463046A847241A0644002C6A
:10417000F7D103B0BDE8F08374EC000008EA00005A
:10418000F0E90000074B01221A6004E04008054AEC
:1041900013685B001360044B9842F7D8034B186018
:1041A000704700BF1050002040420F001450002004
:1041B000034B01221A70034B034A1A60704700BF79
:1041C000F6580020405000204450002008B5034B12
:1041D00001221A70024807F057FD08BDF758002069
:1041E00074EA0000014B1960002070472C50002039
:1041F00008B518B9074B00221A7008BD064B1B788A
:1042000023B141F2883009F072FCF6E7052007F08F
:1042100052FDF2E7F6580020F758002038B5044662
:104220000A4B01221A700A4B1B782BB938BD651E48
:104230002046FFF7DDFF2C46002004F0FDFB0028A0
:10424000F4D0024B1B78002BF1D1EFE7F658002099
:10425000F7580020F8B506460D4604270DE02A461B
:104260003146002004F080FB044614E03846FFF796
:10427000D5FFDCB9114B1B78C3B1114B1B78002B58
:10428000EDD104F0E9FB2A463146002004F06CFB36
:10429000044604F0EDFB002CE8D1084B1B78002B02
:1042A000E7D0013F3846FFF7A3FFE2E714B9034B1D
:1042B0001B7803B92C462046F8BD00BFF6580020F5
:1042C000F758002008B50248FFF71AFF08BD00BFE5
:1042D00074EA000010B50C46044B1868FFF734FA76
:1042E00003460E2221460248984710BD2C5000205C
:1042F00074EA000070B506460D46002405E0315D05
:10430000044883685B6898470134AC42F7D3284679
:1043100070BD00BF10E30000014B03600020704738
:10432000D8EA000008B5034806F0A9FE024806F0E6
:10433000A6FE08BDD8EA000010EB000008B5024850
:1043400005F092FE08BD00BF40EB0000B0F5680F1D
:1043500017D00CD840F6BA63984214D0B0F5683F35
:1043600013D03A2801D00120704700207047094B34
:1043700098420CD0084B984201D001207047002091
:1043800070470020704700207047002070470020D1
:10439000704700BF3A00003A2C5F5CA9E8B108B54D
:1043A0004268B2F5683F07D00F498A421AD00068C8
:1043B00004F0FAFE002008BD03680022BFF35B8F03
:1043C00053E8001F012903D143E800200028F7D15A
:1043D000BFF35B8F04D11046EDE76FF4E040704708
:1043E0000248E8E70248E6E72C5F5CA9E98FFFFF97
:1043F000EA8FFFFF30B308B54268B2F5683F0CD0D2
:1044000012498A421CD000684FF0FF324FF0FF3350
:1044100004F04AFE88B10E480FE003680122BFF3A2
:104420005B8F53E8001F002903D143E800200028D8
:10443000F7D1BFF35B8F01D1002008BD0448FCE732
:104440000448FAE76FF4E040704700BF2C5F5CA9B6
:10445000E98FFFFFEA8FFFFF10B50446A8B163683C
:10446000B3F5683F10D0B3F5680F0DD00D4A9342F5
:104470000AD013F4686F0DD021680B4809F09FFB38
:1044800000232360074B636010BD084B5B6808483E
:104490009847E4E7236800221A605A609A60DA605D
:1044A0001A61EFE72C5F5CA984550020402F0020A3
:1044B00048EB000010B5044668B36068B0F5683F8B
:1044C00028D0B0F5680F25D0174B984228D0FFF7B9
:1044D0003DFFC0B14FF0FF324FF0FF33214613488C
:1044E00004F0B0FD08B923681BB9114B5B68114893
:1044F0009847236800221A605A609A60DA601A614D
:104500004FF468636360206809F0A3FB636843F0BD
:104510003A03636010BD064B5B6807489847CCE7D9
:104520002368002BD3D1D5E72C5F5CA984550020EC
:10453000402F002070EB000048EB000008B540233E
:1045400014220449044809F02CFB0449044805F0EE
:10455000FDFD08BD8450002084550020A0EB000024
:10456000B4EB00002DE9F04182B000AF0446D0F872
:1045700000E0D0F804C085686E468AB06B4613F13F
:10458000100200F0888014218AB10846042903DD56
:10459000DFF81C81C3F81480082801DDC3F818E097
:1045A0000C2801DDC3F81CC0102800DD1D62132992
:1045B00074DD14253AB10521397100217971B97181
:1045C000F9717868186100216FF300016FF3410100
:1045D0006FF382016FF3C501012363F38811C5F303
:1045E0000A0565F353216FF31F5100233148FFF78C
:1045F000D5FAB546D4F80CC026696569E8468AB094
:104600006B4613F110024CD0142182B108460429E4
:1046100003DDDFF8A4E0C3F814E0082801DDC3F8E7
:1046200018C00C2800DDDE61102800DD1D62132992
:104630003ADD14253AB10521397100217971B9713A
:10464000F9717868186100216FF300016FF341017F
:104650006FF382016FF3C501012666F38811C5F37C
:104660000A0565F353216FF31F51124D00232846AD
:10467000FFF794FAC546E369104A3146284607F029
:104680004CFAA3690E4A3146284607F046FA083725
:10469000BD46BDE8F0816FF0004175E76FF01B0586
:1046A00088E76FF00041B0E76FF01B05C2E700BF7D
:1046B000C4EB000058E50000F4EB000024EC00001F
:1046C00034EC000038B504460D4611B10846FFF73A
:1046D00049FF012C04D02946204604F04FFA38BD8A
:1046E000EFF30583103B034A0121034807F015FA55
:1046F000F1E700BF64EC000058E5000030BFFFF7B1
:10470000FDBF00BF38B50446054D2A46054909F0EE
:1047100016FD054A0021601909F01FFD38BD00BFD4
:1047200000000000B0E500000400000070B506467F
:10473000054D064B1D444C1B2046FFF7E3FF083C8C
:10474000346705F1080070BD00000000040000009F
:10475000074B9B6893F90E20002A08DB044A526934
:10476000934204D0034A536843F080535360704728
:10477000E856002000ED00E081690D4B5A6942F4D3
:1047800080725A61BFF34F8FBFF36F8F31F8021CF5
:104790005A6922F480725A61BFF34F8FBFF36F8F53
:1047A0004DF60273994201D00020704701207047F6
:1047B00000ED00E04FF0000C83F800C002F07F4CE9
:1047C000BCF17F4F14D102F00C0CBCF1080F04D0E7
:1047D00012F0080F09D00846704708B5054A0121B4
:1047E000054807F090F9002008BD01221A707047B3
:1047F0000020704778EC000058E5000008B52B4A0F
:1048000001212B4807F07FF92A4B9B6A13F0007FA8
:1048100021D11D20274B9B6A13F0807F22D1254B8D
:104820009B6A13F4002F24D1224B9B6A13F4802F30
:1048300026D1204B9B6A13F4003F28D11D4B9B6A65
:1048400013F4803F2AD11B4A936A6FEA03436FEA4D
:104850001343936208BD184A0121154807F053F924
:104860001E20D7E7154A0121114807F04CF91F20F7
:10487000D5E7134A01210E4807F045F92120D3E777
:10488000104A01210A4807F03EF92220D1E70E4ADA
:104890000121074807F037F92320CFE70B4A012110
:1048A000034807F030F92420CDE700BFA4EC000056
:1048B00058E5000000ED00E0BCEC0000D0EC00008A
:1048C000ECEC00000CED000034ED000050ED0000B9
:1048D00008B500230B70034A0121034807F013F9C0
:1048E00008BD00BF7CED000058E5000090B583B026
:1048F00000AF0F2923DC2F4C103900233B7102231A
:104900007B718AB0EC461CF110021AD0122022B141
:10491000042802DD284BCCF8143000233B7002231E
:104920007B70E2B10346082801DDCCF818400C2B5F
:1049300001DDCCF81C100CF1200300210DE01F4C10
:10494000DAE76FF00040E2E701F1080404EB070E3C
:104950001EF808EC03F801EB01310129F4D9112804
:1049600024DD12234AB10421397100217971B97112
:104970000121F9717868CCF8100000216FF3000173
:104980006FF341016FF382016FF3C501012060F302
:104990008811C3F30A0363F353216FF31F510023FC
:1049A0000748FFF7FBF80C37BD4690BD6FF01B03BF
:1049B000D8E700BFA0ED0000D4ED0000B8ED000086
:1049C00058E50000F8B505460F461446374A012160
:1049D000374807F098F8374B9B6A13F4805F25D16E
:1049E0001626344B9B6A13F4006F26D1314B9B6A19
:1049F00013F4007F28D12F4B9B6A13F4806F3FD1B3
:104A00002C4B9B6A13F4807F41D12A4B9B6A13F491
:104A1000005F43D1274A936A43F47F4393620121A5
:104A2000284607F0ADF920703046F8BD224A012132
:104A30001F4807F068F81726D3E7204A01211C48D1
:104A400007F061F81826D1E71D4A0121184807F040
:104A50005AF8184A936B926A12F4004F01D1192642
:104A6000C9E7184A0121124807F057F837B1114A2F
:104A7000936A23F4004393621926BCE71926BAE728
:104A8000114A01210A4807F03EF81A26B8E70F4AF2
:104A90000121074807F037F81B26BBE70C4A012124
:104AA000034807F030F81C26B4E700BFE8ED00002B
:104AB00058E5000000ED00E000EE000014EE0000FC
:104AC00028EE000044EE00005CEE000078EE0000EE
:104AD00090EE00002DE9F04104460F461546464A87
:104AE0000121464807F00FF8454B9B6A13F0100F61
:104AF0003CD11026424B9B6A13F0080F3DD1404B2E
:104B00009B6A13F0020F3FD16FF015083C4B9B6A74
:104B100013F0010F58D13A4B9B6A13F0200F5AD172
:104B2000374B9B6A13F0100F04D1354B9B6A13F07F
:104B3000020F04D0324B5B6813F4006F52D1304B3C
:104B40009B6A13F0200F04D02D4A536A23F40053BC
:104B500053622B4A936A43F0FF039362012120467C
:104B600007F00EF928703046BDE8F081254A012192
:104B7000224806F0C8FF1126BCE7234A01211F483E
:104B800006F0C1FF1226BAE7204A01211B4806F0B1
:104B9000BAFF1B4BD3F834809B6A13F0800F03D10C
:104BA0006FF015081326B1E74346194A012113484F
:104BB00006F0B3FF37B1124A936A23F08003936281
:104BC0001326A3E71326A1E7124A01210B4806F09A
:104BD0009AFF14269FE7104A0121084806F093FF28
:104BE00015269DE72146404600F040FA0028A6D051
:104BF00080F309880226A2E7C0EE000058E5000015
:104C000000ED00E0D8EE000014EE00000CEF000014
:104C100024EF00003CEF000090EE000070B5064667
:104C20000D462B4A01212B4806F06DFF00232B7007
:104C3000294BDC6A14F002040AD1274BDB6A002BF3
:104C40000DDB254BDC6A14F080440ED1204670BD8C
:104C5000224A01211F4806F056FF0024F6E7204AA9
:104C600001211C4806F04FFFF0E71E4A01211948B8
:104C700006F049FF3046FFF77FFD98B9164B9B6A57
:104C800013F0FF0F16D1144B9C6A14F47F4418D113
:104C9000114B9B6AB3F5803FD8D33046FFF7AEFD8A
:104CA0000446D3E73368104A01210A4806F035FF6D
:104CB0003468CBE72A4601213046FFF70BFF044654
:104CC000C4E72A4601213046FFF77CFE0446BDE7D3
:104CD0005CEF000058E5000000ED00E074EF00001C
:104CE00098EF0000A8EF0000C8EF000030B58BB0CF
:104CF0001F4B5D68C5F30805002383F31188BFF3DC
:104D00006F8F0DF12603FFF755FD04460DF12702C5
:104D1000294607F037F89DF827300BB10BB030BDAE
:104D200005460DF1040C20686168A268E368ACE8F0
:104D30000F0020696169A269E369ACE80F009DF882
:104D400026304BB1089BC3F308025AB96FEA5323CC
:104D50006FEA4323089305E0089B23F4FF7323F0D5
:104D60000103089301A92846FFF7ACFCD6E700BF72
:104D700000ED00E0044B5A6942F010025A615A6992
:104D800022F008025A61704700ED00E0EFF308805E
:104D9000EFF3098101B57246FFF7A8FF01BD00BF1F
:104DA000002080F31488BFF36F8F02F017FB002000
:104DB0000D490860BFF34F8F0C4880F3088800F05E
:104DC0002DF8202080F3118809484FF40461401821
:104DD00080F30988EFF314800221084380F31488DC
:104DE000BFF36F8F00F006F994ED00E0406E0020F5
:104DF00080600020084BD3F89000C0F30720002308
:104E000006E0054AC2F898300021C2F8A01001332C
:104E10008342F6DB704700BF00ED00E010B572B6CC
:104E2000002484F31388FFF7E5FF234608E003F12D
:104E300020010E4A4FF0FF3042F821000133DBB26F
:104E4000072BF4D9002308E003F16001074A4FF073
:104E5000FF3042F821000133DBB2072BF4D962B6F0
:104E6000BFF34F8FBFF36F8F10BD00BF00E100E0B5
:104E700008B50A4B9B68834202D009F0B4F808BD1C
:104E8000EFF30583002BF8D0054B5A6842F08052AF
:104E90005A605A6A22F400425A62EEE7E85600204D
:104EA00000ED00E0094A936858676FF00A019967BE
:104EB00007494B6843F080534B60002383F311880C
:104EC000BFF36F8F9368986F704700BFE85600205C
:104ED00000ED00E010B50446EFF31183202383F3C7
:104EE0001288BFF36F8F0A4B58699860094B4FF0D7
:104EF00000625A60026F084B1A60436F00224267DB
:104F000083F31188BFF36F8F00F030F9204610BD96
:104F1000E856002000ED00E0A05500200B498A680B
:104F20004FF030001044EFF3098C80E8F01F744616
:104F30007046FFF7CFFFA64604498A6802F13000A9
:104F400090E8F01F8CF3098870470000E8560020B5
:104F50001EF0040F0CBFEFF30880EFF309808169A6
:104F600011F8021C0229FFD001B506F0FDFE01BDBB
:104F7000002807DB00F01F02400901239340024A8A
:104F800042F82030704700BF00E100E000280CDB51
:104F900000F01F024009012393402030034A42F8E9
:104FA0002030BFF34F8FBFF36F8F704700E100E0F9
:104FB000002808DB4901C9B200F1604000F56140FA
:104FC00080F80013704700F00F004901C9B2014B8F
:104FD0001954704714ED00E04209054B53F82220A4
:104FE00000F01F00012303FA00F01040704700BFDB
:104FF00000E100E008B50B4B0B4A22F07F029A60FB
:10500000BFF34F8FBFF36F8FD3F8882022F4700265
:10501000C3F8882003F05EFF04F0E0FD00F06EF8B6
:1050200003F0B6FF00ED00E00000000010B4A2F1B4
:1050300020040D4942F8081C21F0010142F8081C27
:1050400042F8203C019B42F81C3C029B42F8183C71
:10505000039B42F8143C4FF0807342F8043C046513
:105060000023436710BC7047AD3300000E4B9B68B4
:10507000A3B110F1160F0AD01A6EA2F1400C8445AC
:105080000ED882420ED98A4206D8002070471A6E86
:105090008A4201D800207047186E70470020704780
:1050A0000020704700207047E856002008B50E46E3
:1050B00015460B4A9060026F0A4B1A6000F056F8D2
:1050C0002C4686F309884FF00000074B984720468E
:1050D0004FF000014FF000024FF00003034C204757
:1050E000E8560020A0550020FBBD0000AD330000B5
:1050F000014B10221A61704700ED00E0002206E02B
:1051000003F00F030949194420230B7601322F2A9B
:105110000ADC53B2002BF3DB03F1604303F5614378
:10512000202183F80013F1E7704700BFFCEC00E09A
:1051300008B5EFF30583103B044A02EBC30149684D
:1051400052F833008847FFF703FB08BD60E3000017
:1051500008B5034B034A0121034806F079FF08BD57
:105160000000042000000020E4EF000008B5036EFA
:10517000403B0548036040234360044B83600121AA
:1051800006F06AFF08BD00BFA455002000000B1503
:10519000084AC2F898000B6823F01F03034343F04A
:1051A0001003C2F89C308B6843F00103C2F8A030B2
:1051B000704700BF00ED00E010B504460A4BD3F87D
:1051C0009030C3F30723013B984203D8FFF7E0FF79
:1051D000204610BD0346054A0121054806F09DFC06
:1051E0006FF01500F5E700BF00ED00E0F4EF000000
:1051F00050E500002DE9F04780460F469A461646D6
:10520000002409E02946F0B206F02BFE064610F114
:10521000160F1AD001360134BC4216DA04EB4405ED
:1052200008EB85056A68002AF5D0BAF1000FE9D0CD
:10523000284606F005FE0028E4D12346044A012151
:10524000044806F06AFC6FF015063046BDE8F087AA
:105250001CF0000050E5000010B5034C012322783B
:10526000FFF7C8FF207010BDF858002008B50023D4
:105270000B4A1278FFF7BEFF10F1160F0FD002464F
:1052800006E0084BC3F898200021C3F8A0100132B3
:10529000044BD3F89030C3F307239342F1DC08BDED
:1052A000F858002000ED00E0044B0522C3F89420DC
:1052B000BFF34F8FBFF36F8F704700BF00ED00E06B
:1052C000BFF35F8F024B0022C3F89420704700BFEA
:1052D00000ED00E038B51C4B1D681C4BD3F8903036
:1052E000C3F307239D422BD8FFF7EAFF002409E010
:1052F000154B5B6804EB440103EB81012046FFF78B
:1053000047FF0134A542F3D81148057006F0C8FDE7
:1053100010F1160F13D00E4B1A780C4BD3F89030B7
:10532000C3F307239A4207DA084BC3F898200021F9
:10533000C3F8A0100132F0E7FFF7B6FF002038BD38
:105340004FF0FF30FBE700BF40F0000000ED00E051
:10535000F858002008B5024B1B689847002008BD8C
:10536000B0550020034B1860034A937843F00203C2
:1053700093707047B0550020782D002030B587B06D
:105380000D46114600240094019402940394049461
:10539000059402228DF80220044A0192049005959A
:1053A0001A46684605F05CF807B030BD61C00000E1
:1053B00008B5064921F00701C1F1005202F580222B
:1053C000034805F048FD002008BD00BF876E00209F
:1053D000B455002008B501230A4AC2F840354FF001
:1053E0008042C2F8783506F046FE20B14FF0804387
:1053F0000122C3F838264FF080430122C3F88025EC
:10540000002008BD00E0014030B108B5034B800129
:1054100043F00103984708BD704700BFD0E5000086
:105420000048704714560020034BC01A8010034BED
:1054300003FB00F0704700BFD4550020B76DDBB60A
:1054400038B505460C46FFF7EFFF014640220348FA
:1054500006F0B1FE01462846A04738BDD4E2000060
:1054600030B583B005460C46FFF7DEFF014640230A
:1054700000932346054A064806F0B7FE011E01DBED
:1054800003B030BD2846A047FAE700BF33C2000092
:10549000D4E2000008B510B101280DD008BD0021EC
:1054A000084806F014FE836813F0070FF6D10021B8
:1054B000044806F06EFEF1E70121024806F069FE9D
:1054C000ECE700BFD4E2000010B582B0EFF3118426
:1054D000202383F31288BFF36F8F154A136843F0BC
:1054E0000201116013F0010F09D1002384F3118828
:1054F000BFF36F8FB3B906F0A4FE02B010BD0DF17B
:10550000070201214FF0804006F0C5FD9DF80730ED
:10551000012B01D00023E9E7FFF782FF06F027FE09
:105520000123E3E70021034806F033FEE5E700BF6F
:1055300024560020D4E2000010B5EFF3118420239C
:1055400083F31288BFF36F8F074A136823F00201B9
:10555000116013F0010F04D084F31188BFF36F8F33
:1055600010BD06F078FEF7E72456002070B582B033
:105570000546012807D14FF08043D3F81C3403F0CF
:105580000303012B4BD008F09DFB044618B9284BB0
:105590001B78002B38D1EFF31186202383F3128878
:1055A000BFF36F8F012424B94FF080430222C3F868
:1055B000082301AA00214FF0804006F06CFD20B1C5
:1055C000019B012B26D0012D24D0FCB1304606F0E2
:1055D00028FC4FF08043D3F81835002BE9D14FF069
:1055E0008043D3F80431002BE3D04FF080430022F6
:1055F000C3F80421D3F804210122C3F818250D496A
:10560000C1F880219A60D4E70026CCE7012006F09B
:105610002CFEDEE72CB186F31188BFF36F8F02B04A
:1056200070BD4FF080430222C3F80423F7E700BFA8
:10563000FC58002000E100E000B585B0CDF800D0B6
:10564000CDF804D000230293012303936B46074A4D
:1056500006F0E7FD002805DB4FF480420023684692
:1056600003F004FE05B05DF804FB00BF97C2000024
:1056700070B5064600220121104606F0B2FB114823
:1056800002F004F8104B984219D102F013F80024EC
:10569000012C12D82146304606F019FD0546214658
:1056A000304606F021FD094906F0D2F8002805DB56
:1056B0000123AB601C44E4B2EAE7002070BD6FF048
:1056C0000400FBE7955400000000AD0B74F00000EF
:1056D00010B50446104B0121BFF35B8F53E8002F38
:1056E00043E800100028F9D1BFF35B8F1AB1631EA5
:1056F000012B0DD910BD094806F0F6FC084900231E
:105700004B608B60CB6001238B6006F0BEF8EEE748
:105710002046FFF72BFFEDE7D0550020D4E2000034
:10572000C055002010B504460A2806D0E1B206484C
:1057300083685B689847204610BD034883685B68B0
:105740000D219847F2E700BF10E3000010B5044CAC
:105750002046FFF707FE2046FDF722FE10BD00BFE2
:105760002557000008B5054808F0C7F918B1FFF73C
:10577000EDFF002008BD6FF01200FBE710E3000012
:10578000F0B51C46059F069E00F01F0C400936D060
:10579000012837D1284D0CF5E07355F8233099B323
:1057A00001209AB34FF0020E40EA0E008CB34FF086
:1057B0000C0E40EA0E007FB34FF4E06E40EA0E009C
:1057C0006EB34FF4403E40EA0E0023EA000049B3B6
:1057D0000B784AB31278520013433CB322789200FC
:1057E00013432FB33A78120213431EB332781204D4
:1057F000134303430CF5E07C45F82C30F0BD4FF02B
:10580000A045C8E70025C6E70020CAE74FF0000E14
:10581000CAE74FF0000ECCE74FF0000ECEE74FF096
:10582000000ED0E70023D4E70022D5E70022D7E717
:105830000022D9E70022DBE70003005000F01F033D
:10584000400909D001280AD1064A03F5E07352F84D
:10585000230000F0010070474FF0A042F5E700225E
:10586000F3E700BF0003005028B1012801D103482D
:105870007047002070470248704700BFE8E2000010
:10588000FCE200002DE9F04786B0884615469946AF
:10589000446801F01F07237B47EA4317204606F0C0
:1058A00061FD002853D0B5F5001F2AD00DF10C0A78
:1058B0000026039604964946284606F0C8FD8DF852
:1058C0000C00009601960296CDF804A0A36823FA76
:1058D00008F313F0010F02D1B5F1A07F18D01034F6
:1058E0006A463946204607F074FE1C4B984231D177
:1058F00001223946204607F090FE002006B0BDE8A0
:10590000F087394604F1100007F08BFE0020F5E720
:105910003846FFF793FF0028E1D104F110050DF19F
:1059200017023946284607F060FE0D4B984203D017
:105930000DF117030493D2E70DF11701284607F084
:1059400068FE064B9842F3D06FF00B00D6E76FF07D
:105950008500D3E76FF01500D0E700BF0000AD0B66
:105960000400AD0B2DE9F04389B007468946144683
:10597000456801F01F082B7B48EA4318104606F0E3
:10598000F6FC8DF81E0040F206332340B3F5837F0A
:105990005ED016D8062B57D006D9B3F5807F0DD12F
:1059A00001238DF81D3024E003B3022B03D104231F
:1059B0008DF81D301DE06FF015076FE06FF01507D3
:1059C0006CE040F20222934246D0B3F5407F03D10F
:1059D00003238DF81D300CE0B3F5007F03D10223C3
:1059E0008DF81D3005E06FF0150757E000238DF8A6
:1059F0001D30012606FA09F63146384606F0C5FC88
:105A0000071E4BDB14F4002F2AD06B68C3F808651F
:105A1000284606F0A7FC50B310350DF11F02414691
:105A2000284607F0E2FD064614F4403F3AD14146CD
:105A3000284607F0E6FD3A4B9E422FD19DF81F10F5
:105A4000284607F0E2FD29E006238DF81D30D0E757
:105A500007238DF81D30CCE705238DF81D30C8E7EE
:105A600014F4802FD4D06B68C3F80C65D0E7C4F36E
:105A700040438DF8083014F4803F0CBF012300230D
:105A80008DF81030002301930DF11D0300930DF1EB
:105A90001E0304AA02A94046FFF772FE384609B069
:105AA000BDE8F08302AA00230293039304930593B5
:105AB0000693059204AA4146284607F08AFD184B32
:105AC000984202D06FF01507E8E714F4003F1AD0AF
:105AD0009DF81D308DF8103014F4803F0CBF012369
