:10000000C0450020A1520000B5C100008D52000083
:100010008D5200008D5200008D5200000000000043
:10002000000000000000000000000000515400002B
:100030008D520000000000001D5400008D52000091
:100040003156000031560000315600003156000094
:100050003156000031560000315600003156000084
:100060003156000031560000315600003156000074
:100070003156000031560000315600003156000064
:100080003156000031560000315600003156000054
:100090003156000031560000315600003156000044
:1000A0003156000031560000315600003156000034
:1000B0003156000031560000315600003156000024
:1000C0003156000031560000315600003156000014
:1000D0003156000031560000315600003156000004
:1000E00031560000315600003156000031560000F4
:1000F00031560000315600003156000031560000E4
:1001000080F0004002E000BF81F0004142001FBFCC
:100110005FEA410392EA030F7FEA226C7FEA236CD5
:100120006AD04FEA1262D2EB1363C1BFD2184140CA
:1001300048404140B8BF5B42192B88BF704710F060
:10014000004F40F4000020F07F4018BF404211F003
:10015000004F41F4000121F07F4118BF494292EA6B
:10016000030F3FD0A2F1010241FA03FC10EB0C0097
:10017000C3F1200301FA03F100F0004302D5494224
:1001800060EB4000B0F5000F13D3B0F1807F06D3D1
:1001900040084FEA310102F10102FE2A51D2B1F1C9
:1001A000004F40EBC25008BF20F0010040EA0300BE
:1001B0007047490040EB0000013A28BFB0F5000F3E
:1001C000EDD2B0FA80FCACF1080CB2EB0C0200FAF4
:1001D0000CF0AABF00EBC25052421843BCBFD04043
:1001E0001843704792F0000F81F4000106BF80F4BD
:1001F00000000132013BB5E74FEA41037FEA226C80
:1002000018BF7FEA236C21D092EA030F04D092F04A
:10021000000F08BF0846704790EA010F1CBF00207E
:10022000704712F07F4F04D1400028BF40F00040DB
:10023000704712F100723CBF00F50000704700F0FB
:10024000004343F0FE4040F4000070477FEA226222
:1002500016BF08467FEA23630146420206BF5FEAF3
:10026000412390EA010F40F4800070474FF00003F3
:1002700004E000BF10F0004348BF40425FEA000CBA
:1002800008BF704743F0964301464FF000001CE062
:1002900050EA010208BF70474FF000030AE000BFB8
:1002A00050EA010208BF704711F0004302D54042F6
:1002B00061EB41015FEA010C02BF84460146002068
:1002C00043F0B64308BFA3F18053A3F50003BCFA83
:1002D0008CF2083AA3EBC25310DB01FA02FC634430
:1002E00000FA02FCC2F12002BCF1004F20FA02F237
:1002F00043EB020008BF20F00100704702F120022A
:1003000001FA02FCC2F1200250EA4C0021FA02F28A
:1003100043EB020008BF20EADC7070474FF0FF0C8F
:100320001CEAD0521EBF1CEAD15392EA0C0F93EA8A
:100330000C0F6FD01A4480EA010C400218BF5FEA2C
:1003400041211ED04FF0006343EA501043EA51119F
:10035000A0FB01310CF00040B1F5000F3EBF490099
:1003600041EAD3715B0040EA010062F17F02FD2A9D
:100370001DD8B3F1004F40EBC25008BF20F0010080
:10038000704790F0000F0CF0004C08BF49024CEA97
:10039000502040EA51207F3AC2BFD2F1FF0340EA29
:1003A000C250704740F400004FF00003013A5DDC9A
:1003B00012F1190FDCBF00F000407047C2F10002DB
:1003C000410021FA02F1C2F1200200FA02FC5FEAC8
:1003D000310040F1000053EA4C0308BF20EADC7012
:1003E000704792F0000F00F0004C02BF400010F484
:1003F000000F013AF9D040EA0C0093F0000F01F031
:10040000004C02BF490011F4000F013BF9D041EA52
:100410000C018FE70CEAD15392EA0C0F18BF93EA54
:100420000C0F0AD030F0004C18BF31F0004CD8D17E
:1004300080EA010000F00040704790F0000F17BF05
:1004400090F0004F084691F0000F91F0004F14D04B
:1004500092EA0C0F01D142020FD193EA0C0F03D1A3
:100460004B0218BF084608D180EA010000F00040A6
:1004700040F0FE4040F40000704740F0FE4040F481
:10048000400070474FF0FF0C1CEAD0521EBF1CEA20
:10049000D15392EA0C0F93EA0C0F69D0A2EB03023E
:1004A00080EA010C49024FEA402037D04FF08053D8
:1004B00043EA111143EA10130CF000408B4238BF9D
:1004C0005B0042F17D024FF4000C8B4224BF5B1AAB
:1004D00040EA0C00B3EB510F24BFA3EB510340EAF9
:1004E0005C00B3EB910F24BFA3EB910340EA9C00A7
:1004F000B3EBD10F24BFA3EBD10340EADC001B0117
:1005000018BF5FEA1C1CE0D1FD2A3FF650AF8B42BA
:1005100040EBC25008BF20F0010070470CF0004CC7
:100520004CEA50207F32C2BFD2F1FF0340EAC250F2
:10053000704740F400004FF00003013A37E792F0B3
:10054000000F00F0004C02BF400010F4000F013A11
:10055000F9D040EA0C0093F0000F01F0004C02BF0C
:10056000490011F4000F013BF9D041EA0C0195E775
:100570000CEAD15392EA0C0F08D142027FF47DAF0E
:1005800093EA0C0F7FF470AF084676E793EA0C0FFE
:1005900004D14B023FF44CAF08466EE730F0004CFC
:1005A00018BF31F0004CCAD130F000427FF45CAF8C
:1005B00031F000437FF43CAF5FE700BF4FEA4002F9
:1005C000B2F1FE4F0FD34FF09E03B3EB12620DD981
:1005D0004FEA002343F0004310F0004F23FA02F0EB
:1005E00018BF404270474FF00000704712F1610F92
:1005F00001D1420205D110F0004008BF6FF0004069
:1006000070474FF00000704753B94AB9002908BF3E
:1006100000281CBF4FF0FF314FF0FF3000F00CB846
:10062000ADF1080C6DE904CE00F01AF8DDF804E035
:10063000DDE9022304B07047704700BF10F8012BBA
:1006400011F8013B012A28BF9A42F7D0D01A70470F
:10065000034613F8012B002AFBD1181A0138704702
:100660002DE9F04786468C460846089E1546744696
:100670001946002B40F0C2808542B2FA82F245D979
:100680004AB1C2F1200300FA02FC2EFA03F39540AE
:1006900043EA0C0C94404FEA154EA8B2BCFBFEF89E
:1006A000230C0EFB18CC08FB00F943EA0C439945D8
:1006B00028D9EB1808F1FF3704D2994502D9A8F1DF
:1006C00002072B44A3EB0903A4B2B3FBFEFC0EFB11
:1006D0001C330CFB00F044EA0344A04214D92C194B
:1006E0000CF1FF3304D2A04202D9ACF102032C4436
:1006F000241A43EA07401EB1D440002334607360DB
:10070000BDE8F0874746DDE76346F1E792BB431B50
:1007100001214FEA154EAFB2B3FBFEFC200C0EFBDD
:100720001C330CFB07F840EA0343984562D9EB18E9
:100730000CF1FF3004D2984502D9ACF102002B44F1
:10074000A3EB0803A4B2B3FBFEFC0EFB1C330CFBB3
:1007500007F744EA0344A7424ED92C190CF1FF33A2
:1007600004D2A74202D9ACF102032C44E41B43EAB1
:100770000040C0E7C2F1200320FA03F19540904009
:100780002EFA03F303434FEA154EAFB2B1FBFEFC62
:100790000EFB1C10190C0CFB07F841EA00418845C0
:1007A00004FA02F422D969180CF1FF3004D288450A
:1007B00002D9ACF102002944A1EB08019BB2B1FBC4
:1007C000FEFC0EFB1C110CFB07F743EA01439F42A2
:1007D0000ED9EB180CF1FF3104D29F4202D9ACF1D3
:1007E00002012B44DB1B41EA004192E76046E3E74C
:1007F0006146F7E76046A3E76346B7E7834206D959
:1008000016B9002108467BE7C6E900E0F9E7B3FA2C
:1008100083F78FB9834201D3724508D8BEEB020437
:1008200060EB030301209C461EB9002168E73846AF
:10083000FAE7C6E9004CF8E7C7F1200CBB4022FA02
:100840000CF41C432EFA0CF120FA0CF3B8400143CF
:100850004FEA14490EFA07F5B3FBF9F81FFA84FEC4
:1008600009FB18300B0C08FB0EFA43EA00439A45CB
:1008700002FA07F240D9E31808F1FF3004D29A4592
:1008800002D9A8F102002344A3EB0A0389B2B3FB07
:10089000F9F809FB183308FB0EFE41EA03418E45C7
:1008A0002CD9611808F1FF3304D28E4502D9A8F182
:1008B0000203214443EA0040A0FB0298A1EB0E0191
:1008C0004145CE46434602D306D14D4504D2B9EB4D
:1008D000020E68EB04030138002EA6D0B5EB0E0221
:1008E00061EB030101FA0CFC22FA07F34CEA030363
:1008F000F940C6E9003198E74046C5E74346D9E7E5
:1009000090B583B000AF6C4600233B7102237B712E
:1009100088B0EC461CF1100214D00E2022B104283D
:1009200002DD294BCCF8143000233B7002237B708E
:10093000AAB1082802DD254BCCF818300CF11C03B5
:1009400000210AE06FF00040E8E701F1080EBE4424
:100950001EF808EC03F801EB01310129F5D90D2847
:100960002EDD0E234AB10321397100217971B9714D
:100970000121F9717868CCF8100000216FF30001B3
:100980006FF341016FF382016FF3C501032060F340
:100990008811C3F30A0363F353216FF31F5100233C
:1009A0000B4803F07BFBA54601F064FA0AF0ABFBB1
:1009B0004FF40040002109F08BFA00F01DF9FEE72A
:1009C0006FF01B03CEE700BF08EA00000CEA00004E
:1009D00088E9000038B50546002303E01A4A0021E3
:1009E000D15401337E2BF9DDE9887F2903D9174BD8
:1009F0000A221A6038BD144C0022204600F042FE44
:100A0000A278134B1B689A4207D0EB88114A032146
:100A100011480BF0A2FA00240DE001330C4A1360D8
:100A20000E4A5370F1E7084B1B5D0D4A002101206F
:100A30000BF093FA0134EB88A342F4DC094A00215D
:100A400001200BF080FAD2E714230020CC04002010
:100A50001023002028EA0000C0E90000D004002094
:100A60003CEA0000D8EF000080B582B000AF002360
:100A70003B7102237B7188B0EC461CF1100214D04C
:100A80000E2022B1042802DD254BCCF814300023BF
:100A90003B7002237B70AAB1082802DD214BCCF801
:100AA00018300CF11C0300210AE06FF00040E8E769
:100AB00001F1080EBE441EF808EC03F801EB013109
:100AC0000129F5D90D2827DD0E234AB103213971FB
:100AD00000217971B9710121F9717868CCF81000A1
:100AE00000216FF300016FF341016FF382016FF397
:100AF000C501032060F38811C3F30A0363F3532194
:100B00006FF31F510023084803F0C8FA074B002277
:100B10001A600837BD4680BD6FF01B03D5E700BFE4
:100B200044EA000094EA0000C0E90000CC04002080
:100B300080B582B000AF00233B7102237B7188B087
:100B4000EC461CF1100214D00E2022B1042802DD64
:100B5000254BCCF8143000233B7002237B70AAB1E4
:100B6000082802DD214BCCF818300CF11C030021C1
:100B70000AE06FF00040E8E701F1080EBE441EF8FD
:100B800008EC03F801EB01310129F5D90D2827DD27
:100B90000E234AB10321397100217971B971012104
:100BA000F9717868CCF8100000216FF300016FF341
:100BB00041016FF382016FF3C501032060F38811D7
:100BC000C3F30A0363F353216FF31F510023084853
:100BD00003F064FA074B00221A600837BD4680BD57
:100BE0006FF01B03D5E700BF50EA000088EA000061
:100BF000C0E90000CC04002010B582B0334B0022C5
:100C00001A60334A032133480BF09DF90AF083FA46
:100C100001F0DEFD02200AF072FA0AF0BEF90028A7
:100C2000FBD0002000F09AFDB0F1FF3F09D02A4828
:100C300000F062FB58B1294A012126480BF083F9E4
:100C4000FEE7274A012123480BF07DF9FEE7032048
:100C500000F09EFF234801F0CFF800240194009497
:100C6000214B224A2249234800F030FE012221462E
:100C700021480AF0B2F94FF0C072214644200AF030
:100C8000C2F81E4801F00AFE3C2000F00BFE1C4892
:100C90000AF08BF903E01B4B4FF0FF321A60002281
:100CA00019490E2000F0DCFA002211460E2000F057
:100CB00003FB022000F0ACFF124B1868B0F1FF3FBD
:100CC000FAD00028E7DD0AF01AFAE4E71023002042
:100CD0005CEA0000C0E90000E004002078EA0000BF
:100CE0006CEA0000C0040020690A0000310B00001B
:100CF000D5090000CBAD000080D02304ED18000022
:100D0000A0860100CC040020D004002000B5864657
:100D10001046002307E01EF803C08CEA000C044ACA
:100D200012F80C0001338B42F5DB5DF804FB00BFC9
:100D300070230020F0B585B004461D46BDF828009C
:100D400001EB040CCCF3044C214401F07F03990027
:100D500041EA4C2E71460143090A8DF80C1000F04F
:100D6000030646EA0E068DF80D60164602BB6300C8
:100D700063F07E038DF80C30012778B380F40040D7
:100D8000032852D8294B1B681B7D03B30022394628
:100D900003A8FFF7BBFF024631462846FFF7B6FF20
:100DA00000902B46324603A9384602F01DF820E099
:100DB0001BB9B0F5004F06D038B141F040018DF8B5
:100DC0000C100227D9E70127D7E70127D5E72B46E3
:100DD000324603A9384602F041F80AE02B46324673
:100DE00003A9384602F064F8104B1B681B7D022BE8
:100DF00001D005B0F0BD182CFBD00022394603A865
:100E0000FFF784FF024631462846FFF77FFF04467E
:100E1000002118200AF058F88442EAD0034B1B68DE
:100E20005B6A002BE5D09847E3E7FEE7F00400207B
:100E300008B500221146024809F0E5FF08BD00BFD1
:100E40000400070010B5044600221146084809F0C6
:100E5000DAFF002211464FF4E02009F0D4FF04B974
:100E600010BD4FF0E0520021024809F0CCFFF7E737
:100E7000480007001400070010B50446012802D0FE
:100E8000052C07D010BD41F622020021054809F0CB
:100E9000CFFFF5E74FF400720021024809F0C8FFC8
:100EA000F0E700BF0400110038B504460A4D0122E6
:100EB0000021284609F0BCFF22460021074809F01E
:100EC000B7FF02220021284609F0B2FF00210448A2
:100ED00009F0D2FF38BD00BF08000B0004000B0072
:100EE00010000B0008B5052802D0092808D008BD5D
:100EF00040236FF400520021064809F0F2FFF6E7A4
:100F00004FF401536FF400520021024809F0E9FF49
:100F1000EDE700BF08000B0070B505460C46164E05
:100F20004FF008234FF0FF320021304609F0D9FF7F
:100F30004FF060134FF0FF320021304609F0D1FF2F
:100F4000052D09D00D4B4FF0FF3200214FF4E0206A
:100F500009F0C7FF4CB970BD094B4FF0FF320021BB
:100F60004FF4E02009F0BDFFF4E7064A00210648EF
:100F700009F049FFEFE700BF48000700001C00022E
:100F8000003C0002001101011400070008B505280B
:100F900002D0092808D008BD074B4FF0FF320021CE
:100FA000064809F09EFFF6E7054B4FF0FF3200219F
:100FB000024809F096FFEEE7003C0002040007003B
:100FC000001C000208B54FF4C0734FF6FF720021F9
:100FD000064809F0ADFF064B1B681B7A4FF6E0721E
:100FE0000021044809F0A4FF08BD00BF08000B0061
:100FF000F00400201F00110010B5012817D00228AE
:101000001FD00123FF2200211A4809F0A8FF1A4C23
:101010004FF400036FF480720021204609F061FF55
:1010200000237F220221204609F099FF10BD0520F0
:10103000FFF722FF0123FF2219460F4809F08FFF17
:10104000F4E70323FF2200210A4809F088FF0A4C35
:101050004FF400036FF480720021204609F041FF35
:1010600000237F220221204609F079FF0520FFF7A7
:1010700003FFDBE704001100080011002DE9F8432D
:10108000052836D0204C2546204E214FDFF884809D
:10109000DFF88490214A0021214809F0B4FE4A4635
:1010A0000021204809F0AFFE424600211E4809F009
:1010B000AAFE3A4600211D4809F0A5FE324600214D
:1010C0001B4809F0A0FE2A4600211A4809F09BFEA1
:1010D00022460021184809F096FE184A00211848B7
:1010E00009F091FE174A0021174809F08CFEBDE86F
:1010F000F883164C164D174E174FDFF86080DFF857
:101100006090184AC7E700BFB5AF02007DAF02008C
:101110003EAF0200FEA5020036AC0200FEA80200AF
:10112000380003003C0003004000030044000300BB
:10113000480003004C000300500003004002001070
:101140001C00030089A46D1B20000300F5CF0100E3
:10115000B5CF010036CF01007EC70100BEC6010039
:101160003EC40100FDC0010038B5264C264A0021CE
:10117000204609F048FE1023FF220021204609F0F6
:10118000EEFE002401E00134E4B2022C0AD814205F
:1011900009F0C9FF00211D4809F096FE0128F2D18F
:1011A000002300E001231BBB0025164C0022114642
:1011B000204609F04CFE01220021144809F047FEA8
:1011C0000123FF220221204609F0C9FE0021104818
:1011D00009F052FE6FF0604398420CD000210D4898
:1011E00009F04AFE6FF06043984207D0284638BDA8
:1011F0004FF0FF35D9E74FF0FF35EFE74FF0FF3500
:10120000F4E700BF0C00040001000200200004000D
:10121000140004001C00040070B5044600260128D8
:1012200006D0FFF7A1FF0546012C10D0284670BD5F
:101230000A4D3146284609F036FE064640F20513AF
:101240004FF6FF720021284609F072FEE9E70023FD
:1012500032461946014809F06BFEE7E748000700EF
:101260001318B3F5806F20DA70B505460E461446A4
:101270007F2A08D80B46024621464FF4A01009F0F9
:10128000B9FD002070BD14220021094809F0BBFD02
:1012900022460021074809F0B6FD33462A460021C0
:1012A0004FF4E81009F0A6FDEBE74FF0FF30704770
:1012B00004001F0008001F0008B57F2909D840EA74
:1012C000014040EAC2230B4A0021242009F009FE14
:1012D00008BD803140EA014040EAC223054A0021AE
:1012E000242009F0FEFD00214FF4002009F0ECFD60
:1012F000EEE700BF00F400FC2DE9F84F044690F83B
:1013000000800379182B04D8C378182B16D901272D
:1013100000E00127FFB2E379012B11D04FF0000B61
:101320006378013B062B00F2F880DFE813F0F90048
:10133000F600F6000C00F300F6000F000027E9E7C6
:101340004FF0100BECE74FF0200A01E04FF0480A95
:10135000B64B1E68338A23F0E0033382E37933739C
:10136000637B023301259D401FFA85F94FEAC900CE
:10137000FEF77CFFAE49FEF7D1FFFFF71FF9708241
:10138000237B7375A27B1B0303F4304343EA0243C0
:10139000227A520102F0200213434BEA0303A54ACA
:1013A0000021102009F09DFD002F40F0BC80237B20
:1013B000ABB1A37B012B40F2DB80607B04221021C8
:1013C0009D4B33F8100009F001FD0AEBC90A00F04B
:1013D0007F034FF680720221984809F0A9FDBAF107
:1013E000FF0F40F3CE80914B1A68138A43F020031D
:1013F00013824FF480636FF4C0520021904809F0CB
:1014000070FDA378FC2200214FF4C02009F0A7FD55
:101410006A1ED2B200214FF4003009F018FD637843
:10142000072B00F0B780002009F0B0FD237B03F00C
:101430000303032B00F0B280824A0021824809F0A6
:10144000E2FC0021814809F017FD20F4FF5020F054
:101450001F00B8F1090F00F0A7802279120202F4F0
:10146000F8520243E378DB00DBB2134362795200A7
:1014700002F006021A430021744809F0C4FCA27964
:1014800063781B0343EA82236FF474420021242013
:1014900009F027FD63890BB98123638162890221E9
:1014A0004FF4C02009F0C4FCB8F1090F7FD0684A9E
:1014B0000021684809F0A7FC41F63C7200214FF476
:1014C000102009F0B5FC14220121634809F0BFFC8B
:1014D0000E220221614809F0BAFC812200216048F5
:1014E00009F0B5FC02220021442009F0B0FC0120E3
:1014F000FFF782FD0025052D6BD8142009F013FE9F
:101500000021442009F0E0FC10F0020F7DD10135EC
:10151000EDB2F0E74FF0800A1AE74FF4807A17E750
:101520004FF0400A14E7414B1A68138A43F06003F6
:1015300013824FF440636FF4C0520021404809F019
:10154000D0FC40F206320021464809F05CFC002243
:1015500011464FF00E1009F056FC434A002137485F
:1015600009F051FC7D220021404809F070FC48E759
:10157000607B03221021304B33F8100009F026FC69
:1015800023E74FF4A0536FF4C05200212C4809F018
:10159000A8FC36E7082009F0F9FC47E7344A0021A7
:1015A000294809F030FC4CE740F0010055E7314A8A
:1015B0000021284809F027FC40F63C7200214FF436
:1015C000102009F035FC2C4A00212C4809F01BFCA6
:1015D00079E701233BBB2379093BDBB20F2B1BD8F7
:1015E000124B1B685B7A012B11D04046FFF746FD7A
:1015F0004FF4C84348F2FF120021214809F098FC3B
:101600000120FFF709FEBDE8F88F0023E2E74FFA5B
:1016100088F0FFF767FCEBE70023FE221946184825
:1016200009F09DFCECE74FF0FF30ECE7F004002000
:101630006666663FCF4FFCFFC4EA000012000E0052
:1016400008000B004C585FAF0C00060014000100AE
:101650003411071C1C000700500007001800070089
:10166000080009000C000E000A5A0C0016000E00BB
:10167000CC355FAF3400011C33A8B508100007005B
:101680001800030070B506460D461446134B1B6840
:10169000DB7B032B0DD04FF490106319B3F5806FF3
:1016A00006DA7F2C08D833462A46214609F0DCFBAF
:1016B00070BD4FF49810F0E7020C0021084809F0C3
:1016C000A2FB22460021074809F09DFB33462A462B
:1016D00000214FF4E81009F0C7FBE9E7F00400200F
:1016E00004001F0008001F0010B5002211464FF42F
:1016F000202009F09DFB00221146074809F0A7FBB6
:10170000064C00221146204609F0A1FB02220021CE
:10171000204609F09CFB10BD14000A0004000A00DA
:1017200010B509F02DFC04460346094A0321094877
:101730000AF013FC084B9C4204D0103B9C4203D19E
:10174000002010BD0020FCE74FF0FF30F9E700BF9C
:10175000B4EA000060E900001203CADEF8B50446EE
:10176000434B1B680022DA73022119821A755A75DD
:101770009A72DA729A62DA621A635A63DA639A6365
:10178000FFF7CEFF00286FD106460420FFF78CFB41
:1017900005460520FFF788FB07460A20FFF784FB74
:1017A000334B1A68C0F30440107215B10FB1002812
:1017B00036D12020FFF778FB2E4B984233D02C4BAC
:1017C0001B6800225A7214F0100F31D114F0200F50
:1017D00035D114F0400F39D114F0800F3DD1244B96
:1017E0001B68DA7A0AB98522DA729A7A0AB97422FF
:1017F0009A721F20FFF758FB1D4C236858731E2058
:10180000FFF752FB236800F07F00987308B92E227F
:101810009A739A7B0021184809F019FB3046F8BDED
:10182000FFF7D0FBC5E7124B1B6801225A72CAE7CB
:101830000F4B1D680620FFF737FB2860C6E70C4BEF
:101840001D680720FFF730FB6860C2E70820FFF73C
:101850002BFB074B1B689872BEE70920FFF724FBA0
:10186000034B1B68D872BAE74FF0FF36D6E700BFCC
:10187000F0040020400200101400090008B5002305
:101880001A461946132009F0B5FA054B1B68DA7B96
:10189000032A02D00322DA7308BD0122DA73FBE7C0
:1018A000F004002038B50446074D0021284609F011
:1018B000E3FA000D0005C4F3130202430021284699
:1018C00009F0A1FA38BD00BF0800010010B4064CB1
:1018D0002468A062E16222636363019BA363029BAD
:1018E000E36310BC704700BFF004002070B5002116
:1018F0004FF4F81009F0E8FA04460021442009F0FA
:10190000BBFA05469F4B1E68B061737D03F003036D
:10191000032B00F0828014F0800F40F0868014F0DA
:10192000010F40F0B28014F0400F0BD0954B1868B7
:10193000C36B0BB1183098474FF4C072022144209A
:1019400009F076FA14F0080F5ED08E4B1B68002267
:1019500083F82020DB7B002B40F0A580894B1B689F
:101960009D6115F4802200F0BB8093F8202042F0A6
:10197000080283F820204FF4802615F0805F07D0FE
:1019800093F8202042F0100283F8202046F0805681
:1019900015F4005F05D05A7D02F00302032A00F01F
:1019A000AB8015F4804F1DD0DB7B012B00F0AF80A6
:1019B000032B40F0B780F0220021734809F047FA6A
:1019C00000214FF4F01009F06EFA6E4B1B681A7B81
:1019D000002A40F0AC8000F07F02DA8310F4004F60
:1019E00040F0A98046F4DE420021442009F00BFAC1
:1019F000644B1868C36A0BB118309847614B1B6879
:101A0000DB7B002B40F09E8014F0100F40F09D8097
:101A100014F0200F40F0A78070BD10F4005F3FF479
:101A20007AAF44F00804E4B275E70021482009F0D9
:101A30003AFAB083534B1B681A7D1AB19A6912F0B7
:101A4000040F03D19B8B13F4606F10D0042200218C
:101A5000442009F0D8F94FF460620021482009F0D1
:101A6000E7F9484B1868836B0BB118309847454B22
:101A70001B689B8B13F4807F3FF451AF4FF480724F
:101A80000021482009F0D4F949E7F8220021442038
:101A900009F0DDF93B4B1868836A002B3FF443AF34
:101AA000183098473FE71146374809F00DFA354B93
:101AB0001B68DB7B032B10D010F0010F01D045F425
:101AC000804510F0020F01D045F4005510F0040FCE
:101AD0003FF444AF45F4806540E7C0F30710EBE7FF
:101AE00015F480663FF449AF93F8201041F00401EB
:101AF00083F82010164640E793F8202042F00202B7
:101B000083F820200022DA8346F400466AE70F2299
:101B100000211D4809F09BF900214FF4C01009F085
:101B2000C2F952E700214C2009F0BDF94DE7C0F39E
:101B30000902DA8352E793F8202042F0010283F889
:101B400020204FE7FFF79AFE5EE7104A002144206D
:101B500009F059F90B4B1868436B002B3FF458AF51
:101B60001830984754E722220221442009F06FF9E7
:101B7000044B1868036B002B3FF44EAF18309847A6
:101B80004AE700BFF0040020240001000090052473
:101B900038B510F0010F25D004464FF410736FF4E0
:101BA0007C6200214FF4A02009F09BF94FF404035C
:101BB0004FF0FF320021134809F093F914F00204AA
:101BC0000ED14FF488752A4600210F4809F01BF901
:101BD000BCB105F4887200210B4809F014F910E03B
:101BE0000A4DF0E700236FF47C6219464FF4A02001
:101BF00009F077F900234FF6FF621946024809F011
:101C000097F938BD040011001600110010010F00F3
:101C100008B510F01D0F6DD010F0010F1FD010F09F
:101C2000020F15D000231A4619460D2009F0E2F8DC
:101C30000321442009F048F910F0080F51D1002188
:101C4000414809F019F9B0F5502F41D0002008BDE6
:101C500000231A461946032009F0CCF8E8E710F0F3
:101C6000080F10D010F0020F06D000231A461946B4
:101C70000F2009F0BFF8DBE700231A4619460720BA
:101C800009F0B8F8D4E710F0100F10D010F0020FE0
:101C900006D000231A4619460E2009F0ABF8C7E714
:101CA00000231A461946052009F0A4F8C0E710F0F1
:101CB000020F06D000231A461946102009F09AF8A0
:101CC000B6E700231A461946092009F093F8AFE752
:101CD00000231A461946184609F08CF84FF0FF30D9
:101CE000B5E700231A461946184609F083F84FF065
:101CF000FF30ACE710F0200F12D010F0020F07D029
:101D000000231A461946112009F074F800209EE7B6
:101D100000231A4619460B2009F06CF8002096E7BC
:101D200010F0020F07D000231A4619460C2009F0C4
:101D300061F800208BE700231A461946012009F0BC
:101D400059F8002083E700BF30000F0008B5FFF707
:101D5000CBFC012009F0E3F90323FF22002109480D
:101D600009F0FDF8002211464FF4881009F06FF8D1
:101D7000012009F0D4F9044B1B680122DA73002218
:101D80001A8208BD04001100F004002038B5054691
:101D90000C460120FFF770F800212046FFF7BCF841
:101DA0002046FFF7F3F8C5F30B0200210F4809F0B6
:101DB0003FF80323FF2200210D4809F0D0F800214D
:101DC0000B4809F081F810F0010FF8D1FFF730F857
:101DD0000020FFF737F80520FFF74EF800210548EF
:101DE00009F072F800F03F0038BD00BF1C00080089
:101DF000100008001C00070010B50446038953B901
:101E0000027800210B4809F022F8626800210A4894
:101E100008F0F9FF10BD0021084809F055F810F04E
:101E2000010F04D105212089FFF7B0FFEDE709215B
:101E3000F9E700BF1C0007000C00010014000100BE
:101E400038B5836805699C697CB112F4000F06D02F
:101E50002D6801238B401D4201D082F0C062044BEB
:101E6000134002F0B072A04738BD6FF05700FBE797
:101E700040000006B0B582B000AF6C4600233B7155
:101E800002237B718AB0EC461CF110021AD012209A
:101E900022B1042802DDB34BCCF8143000233B7090
:101EA00002237B70E2B10346082802DDAE49CCF87C
:101EB00018100C2B02DD0B23CCF81C300CF1200386
:101EC00000210BE06FF00040E2E701F1080505EBAF
:101ED000070E1EF808EC03F801EB01310129F4D9D3
:101EE000112859DD12234AB1042139710021797179
:101EF000B9710121F9717868CCF8100000216FF3F5
:101F000000016FF341016FF382016FF3C5010320FC
:101F100060F38811C3F30A0363F353216FF31F5176
:101F20000023924802F0BAF8A5468F4807F034F82B
:101F30008F4B186098B34FF400320B2109F07AF8F8
:101F400001220B218A4B186809F0ACF86C4600237B
:101F50003B7102237B718AB0EC461CF1100272D0F7
:101F6000122022B1042802DD824BCCF81430002369
:101F70003B7002237B70002A73D00346082802DDE1
:101F80007949CCF818100C2B02DD0823CCF81C3052
:101F90000CF12003002162E06FF01B03A3E76D4604
:101FA00000233B7102237B7188B06C4614F1100250
:101FB00012D00E201AB1042801DD6F4B636100239B
:101FC0003B7002237B70A2B1082801DD664BA36140
:101FD00004F11C0300210AE06FF00040EAE701F180
:101FE000080CBC441CF808CC03F801CB01310129D2
:101FF000F5D90D2824DD0E2342B1032139710021CA
:102000007971B9710121F9717868206100216FF34C
:1020100000016FF341016FF382016FF3C5010120ED
:1020200060F38811C3F30A0363F353216FF31F5165
:1020300000234E4802F032F8AD464FF0FF3061E326
:102040006FF01B03D8E76FF000408AE701F1080545
:1020500005EB070E1EF808EC03F801EB013101292E
:10206000F4D911285BDD12234AB104213971002112
:102070007971B9710121F9717868CCF810000021EB
:102080006FF300016FF341016FF382016FF3C5013C
:10209000032060F38811C3F30A0363F353216FF342
:1020A0001F510023314801F0F9FFA5462E4806F0E4
:1020B00073FF324B1860A8B34FF40032082108F0C8
:1020C000B9FF012208212D4B186808F0EBFF6C4680
:1020D00000233B7102237B718AB0EC461CF1100295
:1020E00000F08480122022B1042802DD244BCCF8B9
:1020F000143000233B7002237B70002A00F08480A0
:102100000346082802DD1849CCF818100C2B02DD14
:102110000523CCF81C300CF12003002172E06FF095
:102120001B03A1E76D4600233B7102237B7188B03E
:102130006C4614F1100212D00E201AB1042801DDF1
:102140000D4B636100233B7002237B7022B3082890
:1021500001DD054BA36104F11C0300211AE06FF0BF
:102160000040EAE7E0EA00000CEB0000A0E9000014
:10217000C824002034EB00001CEB0000C424002025
:102180005CEB000001F1080CBC441CF808CC03F81F
:1021900001CB01310129F5D90D2824DD0E2342B1EF
:1021A0000321397100217971B9710121F9717868C0
:1021B000206100216FF300016FF341016FF3820191
:1021C0006FF3C501012060F38811C3F30A0363F3C1
:1021D00053216FF31F510023B14801F05FFFAD465B
:1021E0004FF0FF308EE26FF01B03D8E76FF0004036
:1021F00079E701F1080505EB070E1EF808EC03F876
:1022000001EB01310129F4D9112859DD12234AB11A
:102210000421397100217971B9710121F97178684E
:10222000CCF8100000216FF300016FF341016FF350
:1022300082016FF3C501032060F38811C3F30A0321
:1022400063F353216FF31F510023954801F026FFDC
:10225000A546944806F0A0FE934B186098B34FF43F
:102260000032052108F0E6FE012205218E4B186898
:1022700008F018FF6C4600233B7102237B718AB083
:10228000EC461CF1100272D0122022B1042802DDAB
:10229000864BCCF8143000233B7002237B70002A5D
:1022A00073D00346082802DD7E49CCF818100C2BA9
:1022B00002DD0423CCF81C300CF12003002162E085
:1022C0006FF01B03A3E76D4600233B7102237B7174
:1022D00088B06C4614F1100212D00E201AB10428F6
:1022E00001DD734B636100233B7002237B70A2B15D
:1022F000082801DD6B4BA36104F11C0300210AE0F7
:102300006FF00040EAE701F1080CBC441CF808CC6F
:1023100003F801CB01310129F5D90D2824DD0E2365
:1023200042B10321397100217971B9710121F9712B
:102330007868206100216FF300016FF341016FF3B2
:1023400082016FF3C501012060F38811C3F30A0312
:1023500063F353216FF31F510023514801F09EFE98
:10236000AD464FF0FF30CDE16FF01B03D8E76FF0C3
:1023700000408AE701F1080505EB070E1EF808EC9E
:1023800003F801EB01310129F4D911285BDD122397
:102390004AB10421397100217971B9710121F971B2
:1023A0007868CCF8100000216FF300016FF3410151
:1023B0006FF382016FF3C501032060F38811C3F34B
:1023C0000A0363F353216FF31F510023344801F0D4
:1023D00065FEA546334806F0DFFD364B1860A8B30E
:1023E0004FF40032042108F025FE01220421314B74
:1023F000186808F057FE6C4600233B7102237B717E
:102400008AB0EC461CF1100200F08280122022B14A
:10241000042802DD284BCCF8143000233B70022343
:102420007B70002A00F082800346082802DD1D49E7
:10243000CCF818100C2B02DD0223CCF81C300CF168
:102440002003002170E06FF01B03A1E76D4600231D
:102450003B7102237B7188B06C4614F110021CD0D2
:102460000E201AB1042801DD114B636100233B707B
:1024700002237B7012B3082801DD0A4BA36104F12B
:102480001C030021012919D801F1080CBC441CF8D7
:1024900008CC03F801CB0131F4E76FF00040E0E72E
:1024A000A0E900000CEB0000C024002088EB000035
:1024B0001CEB0000BC240020B4EB00000D2824DD40
:1024C0000E2342B10321397100217971B9710121C3
:1024D000F9717868206100216FF300016FF3410109
:1024E0006FF382016FF3C501012060F38811C3F31C
:1024F0000A0363F353216FF31F510023AE4801F029
:10250000CDFDAD464FF0FF30FCE06FF01B03D8E788
:102510006FF000407BE701F1080505EB070E1EF8A0
:1025200008EC03F801EB01310129F4D9112853DD3E
:1025300012234AB10421397100217971B971012145
:10254000F9717868CCF8100000216FF300016FF387
:1025500041016FF382016FF3C501032060F388111D
:10256000C3F30A0363F353216FF31F51002392480F
:1025700001F094FDA546914806F00EFD904B1860C1
:1025800068B34FF4B012022108F054FD6C460023EA
:102590003B7102237B718AB0EC461CF1100272D0B1
:1025A000122022B1042802DD864BCCF8143000231F
:1025B0003B7002237B70002A73D00346082802DD9B
:1025C0007E49CCF818100C2B02DD0123CCF81C300E
:1025D0000CF12003002162E06FF01B03A9E76D46B8
:1025E00000233B7102237B7188B06C4614F110020A
:1025F00012D00E201AB1042801DD734B6361002351
:102600003B7002237B70A2B1082801DD6B4BA361F4
:1026100004F11C0300210AE06FF00040EAE701F139
:10262000080CBC441CF808CC03F801CB013101298B
:10263000F5D90D2824DD0E2342B103213971002183
:102640007971B9710121F9717868206100216FF306
:1026500000016FF341016FF382016FF3C5010120A7
:1026600060F38811C3F30A0363F353216FF31F511F
:102670000023514801F012FDAD464FF0FF3041E01C
:102680006FF01B03D8E76FF000408AE701F10805FF
:1026900005EB070E1EF808EC03F801EB01310129E8
:1026A000F4D9112831DD12234AB1042139710021F6
:1026B0007971B9710121F9717868CCF810000021A5
:1026C0006FF300016FF341016FF382016FF3C501F6
:1026D000032060F38811C3F30A0363F353216FF3FC
:1026E0001F510023344801F0D9FCA546334806F0B9
:1026F00053FC364B186058B14FF4B012012108F06A
:1027000099FC00200837BD46B0BD6FF01B03CBE736
:102710006D4600233B7102237B7188B06C4614F137
:10272000100212D00E201AB1042801DD264B63617D
:1027300000233B7002237B70A2B1082801DD1F4BF0
:10274000A36104F11C0300210AE06FF00040EAE7F6
:1027500001F1080CBC441CF808CC03F801CB013192
:102760000129F5D90D2824DD0E2342B10321397149
:1027700000217971B9710121F97178682061002116
:102780006FF300016FF341016FF382016FF3C50135
:10279000012060F38811C3F30A0363F353216FF33D
:1027A0001F510023044801F079FCAD464FF0FF3083
:1027B000A8E76FF01B03D8E7A0E900000CEB0000CE
:1027C000B0240020E4EB00001CEB0000B424002047
:1027D00090B583B000AF6C4600233B7102237B7140
:1027E00088B0EC461CF1100214D00E2022B104284F
:1027F00002DD274BCCF8143000233B7002237B70A2
:10280000AAB1082802DD234BCCF818300CF11C03C8
:1028100000210AE06FF00040E8E701F1080EBE4435
:102820001EF808EC03F801EB01310129F5D90D2858
:102830002BDD0E234AB10321397100217971B97161
:102840000121F9717868CCF8100000216FF30001C4
:102850006FF341016FF382016FF3C501032060F351
:102860008811C3F30A0363F353216FF31F5100234D
:10287000094801F013FCA54608F049FCFFF766FA89
:1028800008F049FC0C37BD4690BD6FF01B03D1E743
:1028900008EA000048EC0000A0E90000F0B583B0B1
:1028A00000AF0446664B1B68E3B1664A03216648E5
:1028B00009F049FB624D28684FF001120A2108F027
:1028C000B9FB62494C604FF480638B60286808F064
:1028D000F6FB28684FF0A8620A21FFF7B1FA0C371F
:1028E000BD46F0BD6E463B7102237B718AB06D46DA
:1028F00015F1100217D012201AB1042801DD544B33
:102900006B6100233B7002237B70CAB10346082829
:1029100001DD5049A9610C2B01DD0A23EB6105F1B2
:10292000200300210AE06FF00040E5E701F1080C08
:10293000BC441CF808CC03F801CB01310129F5D9BE
:10294000112845DD122342B104213971002179712A
:10295000B9710121F9717868286100216FF30001D4
:102960006FF341016FF382016FF3C501032060F340
:102970008811C3F30A0363F353216FF31F5100233C
:10298000314801F08BFBB546324806F005FB2C4B75
:102990001860002889D16D4600233B7102237B71AA
:1029A00088B06C4614F1100215D00E201AB104281C
:1029B00001DD294B636100233B7002237B70BAB1B8
:1029C000082801DD234BA36104F11C0300210DE065
:1029D0006FF01B03B7E76FF00040E7E701F108066F
:1029E0003E4416F8086C03F8016B01310129F5D952
:1029F0000D2822DD0E2342B10321397100217971A6
:102A0000B9710121F9717868206100216FF300012B
:102A10006FF341016FF382016FF3C501012060F391
:102A20008811C3F30A0363F353216FF31F5100238B
:102A3000054801F033FBAD4651E76FF01B03DAE7C1
:102A4000B824002034EC0000A0E90000CC240020D1
:102A500010EC00000CEB00001CEB0000F0B583B0A4
:102A600000AF6C4600233B7102237B710123BB71D5
:102A70000323FB718AB0EC461CF1100222D04FF008
:102A8000140E2AB1BEF1040F02DDA54BCCF81430B0
:102A900000233B7002237B702AB1BEF1080F02DDD8
:102AA000A04BCCF818300123BB700323FB70B2B1EC
:102AB000BEF10C0F02DD9C4BCCF81C300CF1200356
:102AC00000210AE06FF0004EDBE701F10800384416
:102AD00010F8080C03F8010B01310329F5D9BEF1F8
:102AE000130F32DD14234AB10421397100217971A9
:102AF000B9710221F9717868CCF8100000216FF3E8
:102B000000016FF341016FF382016FF3C5010320F0
:102B100060F38811C3F30A0363F353216FF31F516A
:102B20000023824801F0BAFAA546814806F034FA3B
:102B30000446804B186058B17E4A0C231371002361
:102B400093600121D1809C4662E06FF01B03CAE7CD
:102B50006D4600233B7102237B7188B06B4613F1F5
:102B6000100212D00E201AB1042801DD72495961F9
:102B70000021397002217970A2B1082801DD69496C
:102B8000996103F11C0100240AE06FF00040EAE7BC
:102B900004F108063E4416F8086C01F8016B013494
:102BA000012CF5D90D2824DD0E2442B10321397101
:102BB00000217971B9710121F971786818610021DA
:102BC0006FF300016FF341016FF382016FF3C501F1
:102BD000012363F38811C4F30A0464F353216FF3F0
:102BE0001F510023514801F059FAAD464FF0FF3014
:102BF0003FE06FF01B04D8E70CEB8C024F4B03EB6C
:102C0000820308334B4A07CA83E807000CF1010C22
:102C1000BCF1030FF0D901220C21204608F097FAED
:102C2000474B464A1A60404806F0B6F9454B1860D3
:102C300010B3434B1B684FF480729A80424A1A606B
:102C4000424DFF263246002128460BF0A6FC404CA0
:102C50003246002120460BF0A0FC3E4B1D609C60DC
:102C60003D490B603D4A0833136001234B605360BC
:102C700000200C37BD46F0BD6D4600233B7102239A
:102C80007B7188B06C4614F1100212D00E201AB17C
:102C9000042801DD324B636100233B7002237B700B
:102CA000A2B1082801DD1F4BA36104F11C03002120
:102CB0000AE06FF00040EAE701F108063E4416F82A
:102CC000086C03F8016B01310129F5D90D2824DDC9
:102CD0000E2342B10321397100217971B9710121AB
:102CE000F9717868206100216FF300016FF34101F1
:102CF0006FF382016FF3C501012060F38811C3F304
:102D00000A0363F353216FF31F510023074801F0B7
:102D1000C5F9AD464FF0FF30ABE76FF01B03D8E7C6
:102D20005CEC0000ACEC000068EC000068E900001E
:102D30000CEB0000D824002078EC000004270020D1
:102D4000542700205827002080841E0004260020DD
:102D500004250020F4240020EC240020E42400209A
:102D600094EC000010B50A4B0A4A13604FF48072CD
:102D70009A80094A1A60FF242246002107480BF076
:102D80000CFC2246002106480BF007FC10BD00BFDA
:102D9000042700205427002080841E0004260020E1
:102DA0000425002010B50C4B0C4A13604FF48072C0
:102DB0009A80143B02F1987202F596325A61FF2410
:102DC0002246002106480BF0E8FB22460021054878
:102DD0000BF0E3FB10BD00BF182700205427002094
:102DE00004260020042500202DE9F0418418A4B217
:102DF0000134A4B2FF2C22D8064615461F46DFF840
:102E00004480024640460BF0BAFB2A46394608EB9E
:102E100006000BF0B4FB35449DF8183008F8053077
:102E2000094B5C60DC60094B1868094B19688368C2
:102E30001C68084B084AA0470020BDE8F0814FF00D
:102E4000FF30FAE704260020F42400205827002051
:102E500054270020E4240020EC240020F8B5054687
:102E600014461E460C4F024638460BF088FB22469D
:102E7000314678190BF083FB2C44084B5C60DC6016
:102E8000074B1868074B196883681C68064B074A8C
:102E9000A0470020F8BD00BF04260020F424002035
:102EA0005827002054270020E4240020EC24002090
:102EB0002DE9F04383B00446884615461E46871820
:102EC000DFF854903A46002148460BF066FB224654
:102ED000414648460BF053FB104B5F60DF60104BE0
:102EE0001868104B196883681F680F4B0F4AB84762
:102EF0000023019302E001990131019101991D29FB
:102F0000F9DD2A460A49214430460BF038FB0020FF
:102F100003B0BDE8F08300BF04260020F4240020A5
:102F20005827002054270020E4240020EC2400200F
:102F3000042500202DE9F04F91B00592029313462D
:102F400002F004020092C3F3C20210F003030193E3
:102F500040F02D8280468A460132041D00284FD061
:102F6000B8F1000F05D0A4EB08030433534500F279
:102F70002182029B5D1E019B04930693039300260E
:102F80004FF0FF3B0427B946B8F1000F01D0029B78
:102F90002360531E0793002A40F35F81059B13F0C3
:102FA000020228D00120A4EB08018B081AB1B1F568
:102FB000007F80F0058203990F2900F20482B8F1A6
:102FC000000F00F06281DBB201F140026A4402F8B6
:102FD000103C02F820BC002800F0538163F07F030E
:102FE00001F140026A4402F8103C049B013304934F
:102FF000039B0133039304340022CC4640463DE05A
:1030000001F0070A5444CAF1080AA9E7002634E08F
:10301000002632E0002630E00827BC462DE02529B6
:103020002BD10BF1010B01260427BC4625E04729D3
:10303000EED82A2914D32A39C9B24FF0010E0EFA5C
:1030400001F14FF6DA7E11EA0E0F16D111F0625F30
:1030500040F0C18011F0010F40F08C8000260CE0A0
:10306000252903D10BF1FF3B002606E001D90026FC
:1030700003E0202901D02329CCD11D466B1C69789F
:10308000002900F01B81002EC9D07A29BED84C2916
:10309000CDD34C392E2961D80FF2040E5EF821F001
:1030A0007B3000005D3100005D3100005D310000CB
:1030B0005D3100005D3100005D3100005D310000D8
:1030C0005D3100005D3100005D3100005D310000C8
:1030D0006D3100005D3100005D3100005D310000A8
:1030E0005D3100005D3100005D3100005D310000A8
:1030F0005D310000D73100005D3100006D3100000E
:103100006D310000D7310000D7310000D731000009
:103110007B3000006D310000193000005D3100008F
:103120007B3000005D310000333200006D31000063
:10313000333200005D3100005D3100003B320000A1
:10314000673100006D3100005D3100005D3100002D
:103150006D3100005D3100006131000000268CE718
:103160000427BC4689E70427BC4686E729786C29F2
:1031700025D000263C44013CB4FBF7F407FB04F4E3
:10318000254620B1211A6144514500F21681002ADA
:1031900058D1BCF1040F00F08980BCF1080F40F059
:1031A00015811A99073121F0070101F108051A95D7
:1031B000D1E9008908B1C4E9008908345DE713F852
:1031C000021C6C2903D000260427BC46D2E7002647
:1031D0000827BC46CEE729784C291AD01A9907311E
:1031E00021F0070101F108061A96D1E900670734BA
:1031F00024F0070440B1211A0831514513D8297829
:103200004C2913D0C4E90067083400260827BC46BF
:1032100033E71A99073121F0070101F108061A96E0
:10322000D1E90067E3E76FF01B00BDE0C4E9006788
:10323000EAE700260427BC469CE73246002604271E
:10324000BC4697E72C46E14680461A9A111D1A9112
:1032500012680292079A1D4696E6624B029A9A42BB
:1032600004D3614B9A420AD3002300E00023002BD1
:103270007FF494AE059B03F00202002093E6012345
:10328000F5E7069B01330693B2E610B10AF1010A95
:10329000AEE6009B13B10AF1020AA9E60298FDF717
:1032A000D7F900EB0A0303F1020AA1E61A990D1DF2
:1032B0001A95096800B121600434DEE68046231ABD
:1032C000B3F5806F80F0858090B1002202609B088A
:1032D0000370009B83B1069BC370049B88F8023087
:1032E0001BBB019DDDF80C90DDF810B0029F3DE0A6
:1032F0005344A3F1080057E0069B4370EDE7013308
:103300009842EED903F140026A4412F8101C12F9F7
:10331000102C002AF3DA01F07F01A4EB080201323D
:10332000524559D804F8011BE9E7019B0398E7E7E8
:10333000009B43B305F140036B4413F8203C04F8B1
:10334000013B019EA4EB080333440133534546D8A7
:1033500005F140036B4413F8103C04F8013B32467E
:10336000394620460BF00BF934440135A94519D9EB
:10337000BBF1000FDCD005F140036B4413F9103CA6
:10338000002BD5DAF1E705F140036B4413F8103C4C
:1033900058F82370002248F823203846FDF758F9E2
:1033A000461CCFE7A4EB080011B0BDE8F08F6FF02A
:1033B0000D00F9E76FF01B00F6E76FF01B00F3E775
:1033C0006FF01500F0E76FF01500EDE76FF01500F6
:1033D000EAE76FF01500E7E76FF01B00E4E76FF036
:1033E0001B00E1E794E6000088FC00002DE9F04FA7
:1033F00097B000AF8346BA613B61D7F88030C3F322
:10340000C0033B62F96011B907F0D1FFF8609BF887
:103410000260B14636B1D7F8803013F0010F0DD1FC
:10342000002300E000239BF803207A6242B1D7F822
:10343000802012F0020F22D1002202E00123F2E7E5
:10344000002202B9EBB19BF80050AA00BA60DBF889
:1034500004207A610BEB8505BA69F2B1002B40F0CC
:103460000481B9F1000F00F00F81D7F8803013F01C
:10347000040F40F00D810020F8610646F9E00122BA
:10348000DFE7BB691BB13A69F96858469847FC68A1
:1034900020465C37BD46BDE8F08FFC68E3B94D447B
:1034A00000233B6123E00444013501364E451AD226
:1034B0002A7800235BF822201946B86907F08CFFB0
:1034C000BAF1000FEFD0D7F888309845EBD22AF840
:1034D000180008F10108E6E70026C7F81C80B0468E
:1034E000D7F884A0E2E7C7F81080D7F81C80D7F897
:1034F000803003F00503FB604FF0000AA146C7F8D7
:103500001CB09CE000253B6A7BB9002D79D0D7F830
:10351000803013F0010F79D1FB68002B6FD10223AB
:10352000A9EB030988E00125EDE75946786907F022
:1035300099FF0028E9D06C46002387F82C3002233D
:1035400087F82D308AB0694611F1100237D0122564
:103550001AB1042D01DDB24B4B61002387F82830EE
:10356000022387F829306ABB112D45DD122362B191
:10357000042087F82C00002087F82D0087F82E0003
:10358000012087F82F00F86A08616FF300086FF3D5
:1035900041086FF382086FF3C508022161F38818B0
:1035A000C3F30A0363F353286FF31F580023414604
:1035B0009C4800F073FDA546A9F102093CE06FF0BC
:1035C0000045C5E72B46082D01DD786988610C2B85
:1035D00001DDC1F81CB001F12003002009E000F179
:1035E000300C07F1280EF4441CF830CC03F801CB62
:1035F00001300128F3D9B7E76FF01B03B7E70123C8
:103600008EE7D7F8803013F0020F15D00023224642
:103610001946B86907F0E0FED7F8843053B13B692A
:10362000D7F88820934205D2D7F8842022F81300D7
:1036300001333B61013881440AF1010A35467B6A56
:103640009A4510D22E4616F802BB6B78FA6952F8EA
:103650002340754B9C42FFF455AF744B9C42FFF4E2
:1036600062AF00254FE74C4612E707F14400002304
:10367000FB6118B14A4629460AF081FF4D444FF0DC
:103680000008C7F804901EE00020F8610646F0E745
:10369000FE6107F134000026EBE700253B6A33BBEF
:1036A000002D3BD0D7F8803013F0010F26D0731CCB
:1036B00006F1300207F12801561806F8149CDEB214
:1036C00008F1010825467B6A98454AD22C4614F831
:1036D00002AB95F801905BF82930534A9342DCD352
:1036E000524A934201D30025D8E70125D6E7514637
:1036F000786907F0B7FE0028D2D0E1E7D7F880302C
:1037000013F0040FDCD0FA69531C303207F12801A2
:103710000A4402F8249CDBB2FB61D1E7D7F8803081
:1037200013F0020F09D0731C06F1300207F12801D3
:10373000561806F8149CDEB2C2E7F869431C00F183
:10374000300107F128028A1802F824AC024602323E
:10375000D2B2FA6107F1580252FA83F303F8249CBB
:10376000AEE7D7F804909BF8003087F854309BF808
:103770000130334487F85530D7F8803013F0020F0A
:103780000ED1FB69C3F3470387F85730D7F8803071
:1037900013F0010F06D113F0040F3FD1002302E014
:1037A0000023F1E7002387F85630DBF80000386388
:1037B000786DCBF80000D7F810804246B9685846BB
:1037C000D7F818A0D047041EFFF662AE386BCBF8CE
:1037D0000000C7F810804246F96907F13400D0476D
:1037E000002856DB04EB0008B96849447B6A01EB0A
:1037F0004301D7F810904A46FB68591A2846D0472B
:10380000041EFFF645AE08EB04054FF000087E628B
:10381000C7F820B05646D7F884B01EE0FB69C2E76F
:10382000C0EC000050E9000094E6000088FC0000B5
:103830004FF0000A4A46012107F12C00B04700284A
:1038400029DB0544534622464946304607F0C4FD6D
:10385000002822DB054408F101087B6A984511D253
:1038600008F1300307F12802134413F8143C87F8D9
:103870002C303A6A52F82340BBF1000FD8D03BF805
:1038800018A0D7E73A6900210846BB6998472C463B
:10389000FEE50446FCE50446FAE50446F8E500BF0B
:1038A000014B1860704700BFF404002080B5054646
:1038B0000E461746984606F075FB03460AF0E0FEF2
:1038C0000446DFF8189049F8003042463946304641
:1038D000A84754F8090001F04BFD00BF08000000A4
:1038E0002DE9F04383B0044608461546238B13F0B8
:1038F000080F05D103F0070600230093019354E05D
:10390000012909D043F02003238385F31188BFF3F5
:103910006F8F03B0BDE8F08343F010032383F4E717
:10392000204608F0FEF842E0D4F814904A46694672
:10393000204608F00FF94FF00008238B03F007072B
:10394000B74269D0A268002A66D0012243F008037A
:10395000238385F31188BFF36F8F002A64D1009B06
:103960002BB14B463A466946204608F06CF9B8F14F
:10397000000F02D034492046C047EFF311852023C1
:1039800083F31288BFF36F8F238B23F00803238305
:10399000238B13F0100F4DD023F01003238301204D
:1039A000268B06F007060028AFD00228B8D00028E2
:1039B000ABD0013804282BD801A353F820F000BF66
:1039C00029390000113A0000D5390000E93900001A
:1039D000FD3900002369D3F800800621204608F055
:1039E00076F84FF00009A8E72369D3F80480042192
:1039F000204608F06CF84FF000099EE72369D3F8E1
:103A000008800521204608F062F84FF0000994E78D
:103A10004FF00008C14690E7009A0AB1002295E7EE
:103A2000B8F1000F92D1B3E74A463946204608F074
:103A300056F894E713F0200F04D023F020032383DB
:103A40000220ADE70020ABE775BC000038B50546A5
:103A50000B4C00E010340B4B9C420FD263685B7937
:103A6000002BF7D02946204608F0C5F90028F1D0F0
:103A700023681B68294620469847EBE738BD00BFFE
:103A8000D0E90000F0E9000070B506460D46084C8C
:103A900004E02A463146204698471034054B9C42A4
:103AA00004D223689B69002BF3D1F6E770BD00BFF9
:103AB000D0E90000F0E900002DE9F0410746054695
:103AC0000AE007EA0807144B03EB06135B680422BD
:103AD0001968204600F0B4FAD5B195FAA5F6B6FA01
:103AE00086F60D4C04EB06140123B3406FEA03087D
:103AF00025EA0305237B002BEED03301064AD35879
:103B00001B69002BDDD0204698470028E4D1D8E778
:103B10003846BDE8F08100BFD0E900002DE9F04152
:103B200080460F46204BBFF35B8F53E8005F6A1C53
:103B300043E800210029F8D1BFF35B8F002D2FD17E
:103B40001A4C002607E0636804221968204600F03A
:103B500077FA01361034164B9C4213D2237B002B8C
:103B6000F7D02368DB680BB12046984723681B69B0
:103B7000002BE8D0204698470028E4D00123B3402A
:103B80001D43E6E7B8F1000F0BD055B12846FFF70B
:103B900093FF0546002FF8D00A2008F032F9F4E729
:103BA00000252846BDE8F08170270020D0E90000FC
:103BB000F0E9000008B5064B186018B1054B1B680A
:103BC000092B00DC08BD044805F0AAFDFAE700BF98
:103BD000642700206C270020FC07002008B502485D
:103BE00005F09EFD08BD00BFFC07002030B589B080
:103BF00000220F490F480AF0A0FC0F4D00220023BD
:103C0000CDE90623002404940E2303930294019427
:103C100000940A4B4FF44072094928460AF08CFA86
:103C2000084928460AF074FA204609B030BD00BFA2
:103C3000DD3B00001821002090080020993F000083
:103C4000C034002078ED0000014B53F8200070478D
:103C500094ED000048B108B5054A1060054B1960A5
:103C6000084600F00FFD002008BD6FF015007047FA
:103C7000F80400206027002008B5054B1B781BB115
:103C8000034B01221A7008BD024805F049FDF7E711
:103C900058300020FC07002008B5104BBFF35B8FA5
:103CA00053E8001F013143E80012002AF8D1BFF3A6
:103CB0005B8F30B90A480AF04CFC0A4805F030FD29
:103CC00008BD094BBFF35B8F53E8001F013943E880
:103CD0000012002AF8D1BFF35B8FEBE768270020C2
:103CE00018210020FC0700206C270020064B002034
:103CF0000146BFF35B8F53E8000F43E80012002A30
:103D0000F9D1BFF35B8F70476827002038B5FFF704
:103D1000EDFF0546094C00E01034094B9C420BD2E4
:103D200063685B79002BF7D023685B68002BF3D0C6
:103D3000294620469847EFE738BD00BFD0E900008C
:103D4000F0E90000034B18680028D4BF00200120D0
:103D5000704700BF6827002010B5044C0449204676
:103D600007F012FD034B1C6010BD00BF5C07002074
:103D700080ED00005C27002008B50023064A137080
:103D8000064A1360064A13604FF400410548FFF7E6
:103D900061FFFFF7E1FF08BD5930002068270020D0
:103DA0006C270020FBBD000008B50146014808F063
:103DB0003EF808BD5C07002008B5024807F0C5FDC5
:103DC00008BD00BF5C07002008B50146024B18681B
:103DD00008F033F808BD00BF5C27002008B5024892
:103DE00008F02FF808BD00BF5C07002010B582B0B6
:103DF00000220023CDE90023284B187808B902B02F
:103E000010BD684608F035F8044688B1244BBFF36E
:103E10005B8F53E8001F013943E80012002AF8D1F4
:103E2000BFF35B8F2046FFF711FE2046FFF7CCFF64
:103E3000FFF788FF58B91B4A1368516813F57A7366
:103E400041F1000113605160FFF7C8FFD7E70AF0A6
:103E500065FB4A0142EAD06243011B1A62EB010290
:103E6000920042EA93729B001B1842EB0102D200BF
:103E700042EA5372C3F3103343EA4243D20B094878
:103E8000016840685B1A62EB000240F2E9318B4244
:103E900072F10002CFD3FFF739FFCCE75830002092
:103EA0006C270020102100200F4B1B7803B17047B6
:103EB00010B500210120FFF731FE0C4C00E010345A
:103EC0000B4B9C4208D263685B79002BF7D02368C8
:103ED0009B6820469847F2E7FFF788FF0028FBD150
:103EE000014B01221A7010BD59300020D0E90000AA
:103EF000F0E9000010B582B01A4BBFF35B8F53E8B6
:103F0000002F511C43E800100028F8D1BFF35B8F4D
:103F1000154B1B7863B9154B1B68B3B1BAB1092AAD
:103F200013D113480AF015FB124805F0F9FB0CE019
:103F3000EFF31184202383F31288BFF36F8FFFF711
:103F400055FF84F31188BFF36F8F02B010BD0022BC
:103F50000023CDE900234FF400420023044806F07B
:103F60007BFAF2E76C2700205930002064270020FC
:103F700018210020FC07002010B50446044B1B68E4
:103F80009847A0602146034807F077FF10BD00BFA7
:103F9000F80400205C0700202DE9F04100210846CC
:103FA000FFF7BCFD804650B140F2676600270AF07B
:103FB00067FB154B1858FFF7FDFD002515E04FF086
:103FC000FF364FF0FF37F2E74046FFF775FD8046BA
:103FD00070B94FF0FF364FF0FF3709E02C463246FC
:103FE0003B460A4805F0C2FB2546B8F1000FEBD16D
:103FF000FFF7FCFE04460028F6D1002DEED000218C
:104000000846FFF741FDEAE708000000FC07002032
:104010000248034BC01AC008704700BFD0E9000037
:1040200050E9000010B50C46FFF7F2FFA04203D99B
:10403000024B53F8340010BD0020FCE750E90000AB
:1040400008B5094BC31A1B110133D0F804C08CF812
:10405000043043689A7143681960436801225A71B9
:10406000FFF70AFE08BD00BFD0E9000000B589B027
:10407000059206930023079362B1074A0C9B0293B3
:104080000B9B01930A9B009305ABFFF7AFF909B0B7
:104090005DF804FB0022F1E78BBE00002DE9F04F34
:1040A0008BB004AF05461E468846C1F34A24002C57
:1040B00000F0898091460022FA603A617A61042317
:1040C0000293FB1801930A23009307F10C03214686
:1040D0004846FFF78BF9B0F5006F58D3D9F80410B4
:1040E0006D4600233B7302237B738AB004AC14F14A
:1040F000100217D012201AB1042801DD3B4B636176
:1041000000233B7002237B70CAB10346082800DD00
:10411000A1610C2B02DD40F2FF73E36104F1200387
:1041200000210AE06FF00040E5E701F118063E4487
:1041300016F8186C03F8016B01310129F5D9112823
:1041400022DD122342B10421397300217973B9733E
:104150000121F973F868206100216FF300016FF30A
:1041600041016FF382016FF3C501022060F38811F2
:10417000C3F30A0363F353210023C1F313011C4863
:1041800007F0F6FEAD462DE06FF01B03DAE760F3B3
:104190005328C0F30A0A0AEB1850173020F0070022
:1041A0008008FFF701FE8346B0B104230293FB1899
:1041B00001930A230093534600F11002214648461A
:1041C000FFF754FF08E004EB1154173424F0070400
:1041D000A008FFF7E9FD8346334642462946584684
:1041E00007F069FE1C37BD46BDE8F08FB4ED000056
:1041F00070E900002DE9F04F85B080460D46174666
:104200001E46DDF838B0DDF84090B9F1000F41D01E
:10421000119B039300934B460F9A10210020FEF749
:1042200089FEB0F5006F2DD282460BEB00031733E9
:1042300023F0070300246FF300046FF341046FF3CE
:10424000820468F3C50467F3881460F353246BF3A6
:104250001F549808FFF7A8FD074650B11030B9F178
:10426000000F06D0119B00934B460F9A5146FEF764
:1042700061FE334622462946384607F01CFE05B04B
:10428000BDE8F08F40F2FF73034A0221034807F0B4
:1042900064FEF4E70020C7E7F4ED000070E90000D9
:1042A000406820B1034BC01A40F3CF0070474FF075
:1042B000FF30704750E900000EB400B582B00146EF
:1042C00003AB53F8042B0193034801F0D7FA02B073
:1042D0005DF804EB03B07047A7BF000030B585B0B0
:1042E00011F0440F05D01A4B1C6834B9002005B0FA
:1042F00030BD1849FFF7E0FFF9E7174B1968B2FB2B
:10430000F1F1B1FBF4FC154AA2FB0C32D20A4FF4D6
:10431000616E0EFB12CE124BA3FB0E535B0904FB26
:104320001C114FF47A7C0CFB01F1B1FBF4F504FB9A
:1043300015110CFB01F1B1FBF4F102910195C3EBF6
:104340000311AEEB810100910649FFF7B5FFCEE7FF
:10435000782700202CEE000074270020C5B3A2911E
:104360008988888838EE000061B108B52AB1064A0C
:1043700052F8232012B9054A00E0044A0449FFF725
:104380009BFF08BD704700BFACEE000054EE00007C
:1043900008EA00002DE9F04105461746069EDDF8C3
:1043A0001C8081B900242EB1324611492846FFF7FE
:1043B00083FF0444B8F1000F14D06FB1099B042BA4
:1043C00013D00C4909E00C4B099A53F822200B49F1
:1043D000FFF772FF0446E6E7064942462846FFF724
:1043E0006BFF04442046BDE8F0810549F5E700BFB6
:1043F00070EE000060EE0000D0EE000068EE0000FD
:104400005CEE00002DE9F04F87B005460C460492A3
:1044100005939DF84C7001F0020B01F0010AC1F305
:10442000C00801F4807907F02EFD18B30246164942
:104430002846FFF741FF0646BBF1000F1CD13A4664
:104440005146284607F0DAFDB9F1000F01D00023EC
:1044500011930397129B0293119B0193109B00935E
:104460000023049A41462846FFF794FF304407B0E2
:10447000BDE8F08F0026DFE7059A21462846FFF7C2
:104480002DFF0644DBE700BF74EE000011F0100FB3
:104490000BD108B511F0200F03D00449FFF70CFF32
:1044A00008BD0349FFF708FFFAE77047D8EF00009F
:1044B00054FB00002DE9F04105460F46164698468C
:1044C0000699FFF7E3FF0024444505DA244928460E
:1044D000FFF7F2FE0134F7E7002409E020492846FF
:1044E000FFF7EAFE0BE01F492846FFF7E5FE01341F
:1044F0000F2C0CDC002C02DD14F0070FEED0B442C0
:10450000F1D23A5D18492846FFF7D6FEEFE7174982
:104510002846FFF7D1FE002409E011492846FFF79D
:10452000CBFE0BE012492846FFF7C6FE01340F2CE4
:1045300013DC002C02DD14F0070FEED0B44207D2DA
:104540003A5D0C4B9B5C13F0970FEBD12E22E9E701
:1045500003492846FFF7B0FEE8E7BDE8F08100BF59
:104560006CEE000080EE000078EE000084EE0000AB
:1045700088EE000079FB00002DE9F04184B004468C
:104580009DF82C500C9F0E9E95B9012B1ED01948FA
:104590004FF0000827B13B462246174906F032FF8C
:1045A000C6B905BB204607F0E7FC04B0BDE8F081C2
:1045B00003950A980290019300920B4600220F99EE
:1045C0002046FFF71FFF80460C48E3E70B484FF0FB
:1045D0000008DFE70F9B0093434632460D992046C3
:1045E00007F024FDDDE72A460F99204607F012FD6B
:1045F000D8E700BFDFBF00007D580000A7BF000064
:104600002DE9F04383B00646056842F20F738B42F2
:1046100028BF0B46184A0521684606F04DF90446A6
:104620007368D3F804900427DFF8508005E04A4609
:1046300039464046A8473F1A8044002FF7D1736897
:10464000D3F804806F4605E0424621463846A84725
:10465000241A0744002CF7D173685F681724084EAA
:1046600005E03A4621463046A847241A0644002C65
:10467000F7D103B0BDE8F08310F10000A4EE000014
:104680008CEE0000074B01221A6004E04008054A46
:1046900013685B001360044B9842F7D8034B186013
:1046A000704700BF7427002040420F007827002089
:1046B000034B01221A70034B034A1A60704700BF74
:1046C0005A300020A4270020A827002008B5034B5B
:1046D00001221A70024807F0F7FC08BD5B30002089
:1046E00010EF0000014B1960002070479027002058
:1046F00008B518B9074B00221A7008BD064B1B7885
:1047000023B141F2883009F012FCF6E7052007F0EA
:10471000F2FCF2E75A3000205B30002038B5044646
:104720000A4B01221A700A4B1B782BB938BD651E43
:104730002046FFF7DDFF2C46002004F0FDFB00289B
:10474000F4D0024B1B78002BF1D1EFE75A30002058
:104750005B300020F8B506460D4604270DE02A46DA
:104760003146002004F080FB044614E03846FFF791
:10477000D5FFDCB9114B1B78C3B1114B1B78002B53
:10478000EDD104F0E9FB2A463146002004F06CFB31
:10479000044604F0EDFB002CE8D1084B1B78002BFD
:1047A000E7D0013F3846FFF7A3FFE2E714B9034B18
:1047B0001B7803B92C462046F8BD00BF5A300020B4
:1047C0005B30002008B50248FFF71AFF08BD00BFA4
:1047D00010EF000010B50C46044B1868FFF734FAD0
:1047E00003460E2221460248984710BD902700201C
:1047F00010EF000070B506460D46002405E0315D5F
:10480000044883685B6898470134AC42F7D3284674
:1048100070BD00BF50E70000014B036000207047EF
:1048200074EF000008B5034806F049FE024806F0A0
:1048300046FE08BD74EF0000ACEF000008B502486A
:1048400005F092FE08BD00BFDCEF0000B0F5680F78
:1048500017D00CD840F6BA63984214D0B0F5683F30
:1048600013D03A2801D00120704700207047094B2F
:1048700098420CD0084B984201D00120704700208C
:1048800070470020704700207047002070470020CC
:10489000704700BF3A00003A2C5F5CA9E8B108B548
:1048A0004268B2F5683F07D00F498A421AD00068C3
:1048B00004F0FAFE002008BD03680022BFF35B8FFE
:1048C00053E8001F012903D143E800200028F7D155
:1048D000BFF35B8F04D11046EDE76FF4E040704703
:1048E0000248E8E70248E6E72C5F5CA9E98FFFFF92
:1048F000EA8FFFFF30B308B54268B2F5683F0CD0CD
:1049000012498A421CD000684FF0FF324FF0FF334B
:1049100004F04AFE88B10E480FE003680122BFF39D
:104920005B8F53E8001F002903D143E800200028D3
:10493000F7D1BFF35B8F01D1002008BD0448FCE72D
:104940000448FAE76FF4E040704700BF2C5F5CA9B1
:10495000E98FFFFFEA8FFFFF10B50446A8B1636837
:10496000B3F5683F10D0B3F5680F0DD00D4A9342F0
:104970000AD013F4686F0DD021680B4809F03FFB93
:1049800000232360074B636010BD084B5B68084839
:104990009847E4E7236800221A605A609A60DA6058
:1049A0001A61EFE72C5F5CA9E82C0020EC060020E0
:1049B000E4EF000010B5044668B36068B0F5683FE6
:1049C00028D0B0F5680F25D0174B984228D0FFF7B4
:1049D0003DFFC0B14FF0FF324FF0FF332146134887
:1049E00004F0B0FD08B923681BB9114B5B6811488E
:1049F0009847236800221A605A609A60DA601A6148
:104A00004FF468636360206809F043FB636843F018
:104A10003A03636010BD064B5B6807489847CCE7D4
:104A20002368002BD3D1D5E72C5F5CA9E82C0020AC
:104A3000EC0600200CF00000E4EF000008B5402375
:104A400014220449044809F0CCFA0449044805F04A
:104A5000FDFD08BDE8270020E82C00203CF0000008
:104A600050F000002DE9F04182B000AF0446D0F8CC
:104A700000E0D0F804C085686E468AB06B4613F13A
:104A8000100200F0888014218AB10846042903DD51
:104A9000DFF81C81C3F81480082801DDC3F818E092
:104AA0000C2801DDC3F81CC0102800DD1D6213298D
:104AB00074DD14253AB10521397100217971B9717C
:104AC000F9717868186100216FF300016FF34101FB
:104AD0006FF382016FF3C501012363F38811C5F3FE
:104AE0000A0565F353216FF31F5100233148FFF787
:104AF000D5FAB546D4F80CC026696569E8468AB08F
:104B00006B4613F110024CD0142182B108460429DF
:104B100003DDDFF8A4E0C3F814E0082801DDC3F8E2
:104B200018C00C2800DDDE61102800DD1D6213298D
:104B30003ADD14253AB10521397100217971B97135
:104B4000F9717868186100216FF300016FF341017A
:104B50006FF382016FF3C501012666F38811C5F377
:104B60000A0565F353216FF31F51124D00232846A8
:104B7000FFF794FAC546E369104A3146284607F024
:104B8000ECF9A3690E4A3146284607F0E6F90837E2
:104B9000BD46BDE8F0816FF0004175E76FF01B0581
:104BA00088E76FF00041B0E76FF01B05C2E700BF78
:104BB00060F0000098E9000090F00000C0F00000F4
:104BC000D0F0000038B504460D4611B10846FFF795
:104BD00049FF012C04D02946204604F04FFA38BD85
:104BE000EFF30583103B034A0121034807F0B5F9B1
:104BF000F1E700BF00F1000098E9000030BFFFF7C7
:104C0000FDBF00BF38B50446054D2A46054909F0E9
:104C1000B6FC054A0021601909F0BFFC38BD00BF91
:104C200000000000F0E900000400000070B5064636
:104C3000054D064B1D444C1B2046FFF7E3FF083C87
:104C4000346705F1080070BD00000000040000009A
:104C5000074B9B6893F90E20002A08DB044A52692F
:104C6000934204D0034A536843F080535360704723
:104C70004C2E002000ED00E081690D4B5A6942F492
:104C800080725A61BFF34F8FBFF36F8F31F8021CF0
:104C90005A6922F480725A61BFF34F8FBFF36F8F4E
:104CA0004DF60273994201D00020704701207047F1
:104CB00000ED00E04FF0000C83F800C002F07F4CE4
:104CC000BCF17F4F14D102F00C0CBCF1080F04D0E2
:104CD00012F0080F09D00846704708B5054A0121AF
:104CE000054807F030F9002008BD01221A7070470E
:104CF0000020704714F1000098E9000008B52B4A25
:104D000001212B4807F01FF92A4B9B6A13F0007F03
:104D100021D11D20274B9B6A13F0807F22D1254B88
:104D20009B6A13F4002F24D1224B9B6A13F4802F2B
:104D300026D1204B9B6A13F4003F28D11D4B9B6A60
:104D400013F4803F2AD11B4A936A6FEA03436FEA48
:104D50001343936208BD184A0121154807F0F3F880
:104D60001E20D7E7154A0121114807F0ECF81F2053
:104D7000D5E7134A01210E4807F0E5F82120D3E7D3
:104D8000104A01210A4807F0DEF82220D1E70E4A36
:104D90000121074807F0D7F82320CFE70B4A01216C
:104DA000034807F0D0F82420CDE700BF40F1000011
:104DB00098E9000000ED00E058F100006CF10000FF
:104DC00088F10000A8F10000D0F10000ECF1000033
:104DD00008B500230B70034A0121034807F0B3F81C
:104DE00008BD00BF18F2000098E9000090B583B03C
:104DF00000AF0F2923DC2F4C103900233B71022315
:104E00007B718AB0EC461CF110021AD0122022B13C
:104E1000042802DD284BCCF8143000233B70022319
:104E20007B70E2B10346082801DDCCF818400C2B5A
:104E300001DDCCF81C100CF1200300210DE01F4C0B
:104E4000DAE76FF00040E2E701F1080404EB070E37
:104E50001EF808EC03F801EB01310129F4D91128FF
:104E600024DD12234AB10421397100217971B9710D
:104E70000121F9717868CCF8100000216FF300016E
:104E80006FF341016FF382016FF3C501012060F3FD
:104E90008811C3F30A0363F353216FF31F510023F7
:104EA0000748FFF7FBF80C37BD4690BD6FF01B03BA
:104EB000D8E700BF3CF2000070F2000054F200009E
:104EC00098E90000F8B505460F461446374A012117
:104ED000374807F038F8374B9B6A13F4805F25D1C9
:104EE0001626344B9B6A13F4006F26D1314B9B6A14
:104EF00013F4007F28D12F4B9B6A13F4806F3FD1AE
:104F00002C4B9B6A13F4807F41D12A4B9B6A13F48C
:104F1000005F43D1274A936A43F47F4393620121A0
:104F2000284607F04DF920703046F8BD224A01218D
:104F30001F4807F008F81726D3E7204A01211C482C
:104F400007F001F81826D1E71D4A0121184806F09C
:104F5000FAFF184A936B926A12F4004F01D1192696
:104F6000C9E7184A0121124806F0F7FF37B1114A84
:104F7000936A23F4004393621926BCE71926BAE723
:104F8000114A01210A4806F0DEFF1A26B8E70F4A47
:104F90000121074806F0D7FF1B26BBE70C4A012179
:104FA000034806F0D0FF1C26B4E700BF84F20000DF
:104FB00098E9000000ED00E09CF20000B0F2000073
:104FC000C4F20000E0F20000F8F2000014F3000068
:104FD0002CF300002DE9F04104460F461546464AE1
:104FE0000121464806F0AFFF454B9B6A13F0100FB6
:104FF0003CD11026424B9B6A13F0080F3DD1404B29
:105000009B6A13F0020F3FD16FF015083C4B9B6A6F
:1050100013F0010F58D13A4B9B6A13F0200F5AD16D
:10502000374B9B6A13F0100F04D1354B9B6A13F07A
:10503000020F04D0324B5B6813F4006F52D1304B37
:105040009B6A13F0200F04D02D4A536A23F40053B7
:1050500053622B4A936A43F0FF0393620121204677
:1050600007F0AEF828703046BDE8F081254A0121EE
:10507000224806F068FF1126BCE7234A01211F4899
:1050800006F061FF1226BAE7204A01211B4806F00C
:105090005AFF1B4BD3F834809B6A13F0800F03D167
:1050A0006FF015081326B1E74346194A012113484A
:1050B00006F053FF37B1124A936A23F080039362DC
:1050C0001326A3E71326A1E7124A01210B4806F095
:1050D0003AFF14269FE7104A0121084806F033FFE3
:1050E00015269DE72146404600F040FA0028A6D04C
:1050F00080F309880226A2E75CF3000098E900002B
:1051000000ED00E074F30000B0F20000A8F300002E
:10511000C0F30000D8F300002CF3000070B5064681
:105120000D462B4A01212B4806F00DFF00232B7062
:10513000294BDC6A14F002040AD1274BDB6A002BEE
:105140000DDB254BDC6A14F080440ED1204670BD87
:10515000224A01211F4806F0F6FE0024F6E7204A05
:1051600001211C4806F0EFFEF0E71E4A0121194814
:1051700006F0E9FE3046FFF77FFD98B9164B9B6AB3
:1051800013F0FF0F16D1144B9C6A14F47F4418D10E
:10519000114B9B6AB3F5803FD8D33046FFF7AEFD85
:1051A0000446D3E73368104A01210A4806F0D5FEC9
:1051B0003468CBE72A4601213046FFF70BFF04464F
:1051C000C4E72A4601213046FFF77CFE0446BDE7CE
:1051D000F8F3000098E9000000ED00E010F4000092
:1051E00034F4000044F4000064F4000030B58BB0E7
:1051F0001F4B5D68C5F30805002383F31188BFF3D7
:105200006F8F0DF12603FFF755FD04460DF12702C0
:10521000294606F0D7FF9DF827300BB10BB030BD03
:1052200005460DF1040C20686168A268E368ACE8EB
:105230000F0020696169A269E369ACE80F009DF87D
:1052400026304BB1089BC3F308025AB96FEA5323C7
:105250006FEA4323089305E0089B23F4FF7323F0D0
:105260000103089301A92846FFF7ACFCD6E700BF6D
:1052700000ED00E0044B5A6942F010025A615A698D
:1052800022F008025A61704700ED00E0EFF3088059
:10529000EFF3098101B57246FFF7A8FF01BD00BF1A
:1052A000002080F31488BFF36F8F02F017FB0020FB
:1052B0000D490860BFF34F8F0C4880F3088800F059
:1052C0002DF8202080F3118809484FF4046140181C
:1052D00080F30988EFF314800221084380F31488D7
:1052E000BFF36F8F00F006F994ED00E0C045002099
:1052F00000380020084BD3F89000C0F307200023AB
:1053000006E0054AC2F898300021C2F8A010013327
:105310008342F6DB704700BF00ED00E010B572B6C7
:10532000002484F31388FFF7E5FF234608E003F128
:1053300020010E4A4FF0FF3042F821000133DBB26A
:10534000072BF4D9002308E003F16001074A4FF06E
:10535000FF3042F821000133DBB2072BF4D962B6EB
:10536000BFF34F8FBFF36F8F10BD00BF00E100E0B0
:1053700008B50A4B9B68834202D009F054F808BD77
:10538000EFF30583002BF8D0054B5A6842F08052AA
:105390005A605A6A22F400425A62EEE74C2E00200C
:1053A00000ED00E0094A936858676FF00A019967B9
:1053B00007494B6843F080534B60002383F3118807
:1053C000BFF36F8F9368986F704700BF4C2E00201B
:1053D00000ED00E010B50446EFF31183202383F3C2
:1053E0001288BFF36F8F0A4B58699860094B4FF0D2
:1053F00000625A60026F084B1A60436F00224267D6
:1054000083F31188BFF36F8F00F030F9204610BD91
:105410004C2E002000ED00E0042D00200B498A688E
:105420004FF030001044EFF3098C80E8F01F744611
:105430007046FFF7CFFFA64604498A6802F13000A4
:1054400090E8F01F8CF30988704700004C2E002074
:105450001EF0040F0CBFEFF30880EFF309808169A1
:1054600011F8021C0229FFD001B506F09DFE01BD16
:10547000002807DB00F01F02400901239340024A85
:1054800042F82030704700BF00E100E000280CDB4C
:1054900000F01F024009012393402030034A42F8E4
:1054A0002030BFF34F8FBFF36F8F704700E100E0F4
:1054B000002808DB4901C9B200F1604000F56140F5
:1054C00080F80013704700F00F004901C9B2014B8A
:1054D0001954704714ED00E04209054B53F822209F
:1054E00000F01F00012303FA00F01040704700BFD6
:1054F00000E100E008B50B4B0B4A22F07F029A60F6
:10550000BFF34F8FBFF36F8FD3F8882022F4700260
:10551000C3F8882003F05EFF04F0E0FD00F06EF8B1
:1055200003F0B6FF00ED00E00000000010B4A2F1AF
:1055300020040D4942F8081C21F0010142F8081C22
:1055400042F8203C019B42F81C3C029B42F8183C6C
:10555000039B42F8143C4FF0807342F8043C04650E
:105560000023436710BC7047AD3800000E4B9B68AA
:10557000A3B110F1160F0AD01A6EA2F1400C8445A7
:105580000ED882420ED98A4206D8002070471A6E81
:105590008A4201D800207047186E7047002070477B
:1055A00000207047002070474C2E002008B50E46A2
:1055B00015460B4A9060026F0A4B1A6000F056F8CD
:1055C0002C4686F309884FF00000074B9847204689
:1055D0004FF000014FF000024FF00003034C204752
:1055E0004C2E0020042D00203BC20000AD380000EE
:1055F000014B10221A61704700ED00E0002206E026
:1056000003F00F030949194420230B7601322F2A96
:105610000ADC53B2002BF3DB03F1604303F5614373
:10562000202183F80013F1E7704700BFFCEC00E095
:1056300008B5EFF30583103B044A02EBC301496848
:1056400052F833008847FFF703FB08BDA0E70000CE
:1056500008B5034B034A0121034806F019FF08BDB2
:10566000000004200000002080F4000008B5036E54
:10567000403B0548036040234360044B83600121A5
:1056800006F00AFF08BD00BF082D002000000B1522
:10569000084AC2F898000B6823F01F03034343F045
:1056A0001003C2F89C308B6843F00103C2F8A030AD
:1056B000704700BF00ED00E010B504460A4BD3F878
:1056C0009030C3F30723013B984203D8FFF7E0FF74
:1056D000204610BD0346054A0121054806F03DFC61
:1056E0006FF01500F5E700BF00ED00E090F400005A
:1056F00090E900002DE9F04780460F469A4616468D
:10570000002409E02946F0B206F0CBFD064610F170
:10571000160F1AD001360134BC4216DA04EB4405E8
:1057200008EB85056A68002AF5D0BAF1000FE9D0C8
:10573000284606F0A5FD0028E4D12346044A0121AD
:10574000044806F00AFC6FF015063046BDE8F08705
:10575000B8F4000090E9000010B5034C0123227852
:10576000FFF7C8FF207010BD5C30002008B5002393
:105770000B4A1278FFF7BEFF10F1160F0FD002464A
:1057800006E0084BC3F898200021C3F8A0100132AE
:10579000044BD3F89030C3F307239342F1DC08BDE8
:1057A0005C30002000ED00E0044B0522C3F894209B
:1057B000BFF34F8FBFF36F8F704700BF00ED00E066
:1057C000BFF35F8F024B0022C3F89420704700BFE5
:1057D00000ED00E038B51C4B1D681C4BD3F8903031
:1057E000C3F307239D422BD8FFF7EAFF002409E00B
:1057F000154B5B6804EB440103EB81012046FFF786
:1058000047FF0134A542F3D81148057006F068FD42
:1058100010F1160F13D00E4B1A780C4BD3F89030B2
:10582000C3F307239A4207DA084BC3F898200021F4
:10583000C3F8A0100132F0E7FFF7B6FF002038BD33
:105840004FF0FF30FBE700BFDCF4000000ED00E0AC
:105850005C30002008B5024B1B689847002008BD4B
:10586000142D0020034B1860034A937843F0020381
:1058700093707047142D00202405002030B587B0A8
:105880000D4611460024009401940294039404945C
:10589000059402228DF80220044A01920490059595
:1058A0001A46684605F034F807B030BDA1C40000C0
:1058B00008B5064921F00701C1F1005202F5802226
:1058C000034805F0E8FC002008BD00BF07460020A3
:1058D000182D002008B501230A4AC2F840354FF0C0
:1058E0008042C2F8783506F0E6FD20B14FF08043E3
:1058F0000122C3F838264FF080430122C3F88025E7
:10590000002008BD00E0014030B108B5034B800124
:1059100043F00103984708BD704700BF00EA00004C
:1059200000487047782D0020034BC01A8010034BAD
:1059300003FB00F0704700BF382D0020B76DDBB6C9
:1059400038B505460C46FFF7EFFF014640220348F5
:1059500006F051FE01462846A04738BD14E7000076
:1059600030B583B005460C46FFF7DEFF0146402305
:1059700000932346054A064806F057FE011E01DB48
:1059800003B030BD2846A047FAE700BF73C6000049
:1059900014E7000008B510B101280DD008BD0021A2
:1059A000084806F0B4FD836813F0070FF6D1002114
:1059B000044806F00EFEF1E70121024806F009FE58
:1059C000ECE700BF14E7000010B582B0EFF31184DC
:1059D000202383F31288BFF36F8F154A136843F0B7
:1059E0000201116013F0010F09D1002384F3118823
:1059F000BFF36F8FB3B906F044FE02B010BD0DF1D6
:105A0000070201214FF0804006F065FD9DF8073048
:105A1000012B01D00023E9E7FFF782FF06F0C7FD65
:105A20000123E3E70021034806F0D3FDE5E700BFCB
:105A3000882D002014E7000010B5EFF31184202317
:105A400083F31288BFF36F8F074A136823F00201B4
:105A5000116013F0010F04D084F31188BFF36F8F2E
:105A600010BD06F018FEF7E7882D002070B582B053
:105A70000546012807D14FF08043D3F81C3403F0CA
:105A80000303012B4BD008F03DFB044618B9284B0B
:105A90001B78002B38D1EFF31186202383F3128873
:105AA000BFF36F8F012424B94FF080430222C3F863
:105AB000082301AA00214FF0804006F00CFD20B120
:105AC000019B012B26D0012D24D0FCB1304606F0DD
:105AD000C8FB4FF08043D3F81835002BE9D14FF0C5
